:100000000C941A030C9442030C9442030C94420384
:100010000C9442030C9442030C9442030C9442034C
:100020000C9442030C9442030C9442030C9442033C
:100030000C9442030C9442030C9442030C9442032C
:100040000C9418160C9442030C9488160C946216A7
:100050000C9442030C9442030C9442030C9442030C
:100060000C94BA160C94420300000000003E5B4F53
:100070005B3E3E6B4F6B3E1C3E7C3E1C183C7E3C08
:10008000181C577D571C1C5E7F5E1C00183C180016
:10009000FFE7C3E7FF0018241800FFE7DBE7FF30A6
:1000A000483A060E2629792926407F050507407F14
:1000B00005253F5A3CE73C5A7F3E1C1C08081C1C87
:1000C0003E7F14227F22145F5F005F5F06097F017D
:1000D0007F006689956A606060606094A2FFA29468
:1000E00008047E040810207E201008082A1C080836
:1000F0001C2A08081E101010100C1E0C1E0C303884
:100100003E3830060E3E0E06000000000000005F84
:1001100000000007000700147F147F14242A7F2AA0
:100120001223130864623649562050000807030062
:10013000001C2241000041221C002A1C7F1C2A08AE
:10014000083E080800807030000808080808000011
:1001500060600020100804023E5149453E00427F85
:10016000400072494949462141494D331814127FD4
:100170001027454545393C4A494931412111090774
:100180003649494936464949291E000014000000F5
:1001900040340000000814224114141414140041C7
:1001A00022140802015909063E415D594E7C121184
:1001B000127C7F494949363E414141227F414141BC
:1001C0003E7F494949417F090909013E4141517337
:1001D0007F0808087F00417F41002040413F017FA8
:1001E000081422417F404040407F021C027F7F0470
:1001F00008107F3E4141413E7F090909063E4151B9
:10020000215E7F09192946264949493203017F01A8
:10021000033F4040403F1F2040201F3F4038403FA9
:10022000631408146303047804036159494D4300BF
:100230007F4141410204081020004141417F0402F6
:10024000010204404040404000030708002054548D
:1002500078407F284444383844444428384444286B
:100260007F385454541800087E090218A4A49C78BE
:100270007F0804047800447D40002040403D007F1A
:100280001028440000417F40007C047804787C08FA
:100290000404783844444438FC18242418182424CE
:1002A00018FC7C08040408485454542404043F44B3
:1002B000243C4040207C1C2040201C3C4030403CE2
:1002C00044281028444C9090907C4464544C440042
:1002D00008364100000077000000413608000201A6
:1002E0000204023C2623263C1EA1A161123A404092
:1002F000207A38545455592155557941225454780F
:1003000042215554784020545579400C1E527212A7
:100310003955555559395454545939555454580030
:1003200000457C410002457D420001457C407D1234
:1003300011127DF0282528F07C5455450020545496
:100340007C547C0A097F4932494949323A44444441
:100350003A324A4848303A4141217A3A424020787C
:10036000009DA0A07D3D4242423D3D4040403D3C7D
:1003700024FF2424487E4943662B2FFC2F2BFF09A2
:1003800029F620C0887E0903205454794100004496
:100390007D413048484A32384040227A007A0A0A81
:1003A000727D0D19317D2629292F282629292926F4
:1003B00030484D4020380808080808080808382F39
:1003C00010C8ACBA2F102834FA00007B00000814C3
:1003D0002A142222142A14085500550055AA55AA99
:1003E00055AAFF55FF55FF000000FF00101010FF39
:1003F00000141414FF001010FF00FF1010F010F094
:10040000141414FC001414F700FF0000FF00FF1484
:1004100014F404FC141417101F10101F101F1414D0
:10042000141F00101010F0000000001F101010101A
:100430001F10101010F010000000FF10101010100E
:1004400010101010FF10000000FF140000FF00FF4C
:1004500000001F10170000FC04F4141417101714E8
:1004600014F404F40000FF00F7141414141414140A
:10047000F700F7141414171410101F101F1414147D
:10048000F4141010F010F000001F101F0000001FE7
:1004900014000000FC140000F010F01010FF10FF1A
:1004A000141414FF141010101F00000000F010FFAF
:1004B000FFFFFFFFF0F0F0F0F0FFFFFF0000000093
:1004C00000FFFF0F0F0F0F0F3844443844FC4A4A17
:1004D0004A347E02020606027E027E0263554941CC
:1004E000633844443C04407E201E2006027E020203
:1004F00099A5E7A5991C2A492A1C4C7201724C3017
:100500004A4D4D303048784830BC625A463D3E49ED
:100510004949007E0101017E2A2A2A2A2A44445F91
:10052000444440514A444040444A51400000FF0185
:1005300003E080FF000008086B6B08361236243693
:10054000060F090F060000181800000010100030F8
:1005500040FF0101001F01011E00191D1712003C80
:100560003C3C3C0000000000EF03038002CF03008E
:10057000C130ED0464031281E803850078CB0539AE
:100580002C003402F70120EA020000C00123C1015F
:1005900010C5023E28C701863601483701003A01DE
:1005A00055B1020018B603088227F20100260101A6
:1005B000E00F0F312B0C0E084EF1370710030E0918
:1005C00000E10F000E1403110731C148080F0C3170
:1005D000360F118029800000000000240027002A27
:1005E0000000000000230026002900000000080091
:1005F00002010000030407000000000000000001E9
:1006000002040810204080010204081020010204A6
:1006100008102000000000250028002B000404041E
:10062000040404040402020202020203030303039B
:100630000300DE1711241FBECFEFD8E0DEBFCDBF11
:1006400011E0A0E0B1E0EAE0F8E302C005900D920D
:10065000AE3DB107D9F723E0AEEDB1E001C01D9288
:10066000A93EB207E1F713E0CAE1D3E004C0219745
:10067000FE010E94F81BC931D107C9F70E94C518B5
:100680000C94031C0C94000080913402909135026C
:10069000891B990B0895833081F028F4813099F0FB
:1006A0008230A9F008958730A9F08830C9F08430ED
:1006B000B1F4809180008F7D03C0809180008F779E
:1006C00080938000089584B58F7784BD089584B5A4
:1006D0008F7DFBCF8091B0008F778093B00008951D
:1006E0008091B0008F7DF9CF1F93CF93DF93282F98
:1006F00030E0F901E551FA4F8491F901E150FA4FE8
:10070000D491F901E35EF94FC491CC23A9F0162FDF
:1007100081110E944B03EC2FF0E0EE0FFF1FED5E06
:10072000F94FA591B4918FB7F894EC91111108C0CD
:10073000D095DE23DC938FBFDF91CF911F91089579
:10074000DE2BF8CFCF93DF9390E0FC01E150FA4F1E
:100750002491835E994FFC0184918823D1F090E02D
:10076000880F991FFC01E952FA4FA591B491FC0141
:10077000ED5EF94FC591D49161110EC09FB7F89409
:100780008C91E22FE0958E238C932881E223E883DD
:100790009FBFDF91CF9108958FB7F894EC91E22B32
:1007A000EC938FBFF6CF3FB7F894809130029091D1
:1007B0003102A0913202B091330226B5A89B05C048
:1007C0002F3F19F00196A11DB11D3FBFBA2FA92FD0
:1007D000982F8827BC01CD01620F711D811D911DCD
:1007E00042E0660F771F881F991F4A95D1F7089539
:1007F000AF92BF92CF92DF92EF92FF920F931F932F
:10080000CF93DF936C017B018B01040F151FEB016C
:100810005E01AE18BF08C017D10759F06991D60123
:10082000ED91FC910190F081E02DC6010995892B95
:1008300079F7C501DF91CF911F910F91FF90EF9054
:10084000DF90CF90BF90AF900895FC01538D448D01
:10085000252F30E0842F90E0821B930B541710F06B
:10086000CF96089501970895FC01918D828D981778
:1008700061F0A28DAE0FBF2FB11D5D968C91928D50
:100880009F5F9F73928F90E008958FEF9FEF089581
:10089000FC01918D828D981731F0828DE80FF11D4A
:1008A000858D90E008958FEF9FEF0895FC01918D65
:1008B000228D892F90E0805C9F4F821B91098F735E
:1008C00099270895FC01A48DA80FB92FB11DA35A33
:1008D000BF4F2C91848D90E001968F739927848F60
:1008E000A689B7892C93A089B1898C918370806483
:1008F0008C93938D848D981306C00288F389E02D24
:1009000080818F7D80830895EF92FF920F931F93D4
:10091000CF93DF93EC0181E0888F9B8D8C8D9813B2
:100920001AC0E889F989808185FF15C09FB7F894BE
:10093000EE89FF896083E889F9898081837080640A
:1009400080839FBF81E090E0DF91CF911F910F9155
:10095000FF90EF900895F62E0B8D10E00F5F1F4F64
:100960000F731127E02E8C8D8E110CC00FB607FC73
:10097000FACFE889F989808185FFF5CFCE010E9401
:100980006204F1CFEB8DEC0FFD2FF11DE35AFF4F09
:10099000F0829FB7F8940B8FEA89FB89808180628F
:1009A000CFCFCF93DF93EC01888D8823B9F0AA894C
:1009B000BB89E889F9898C9185FD03C0808186FD1A
:1009C0000DC00FB607FCF7CF8C9185FFF2CF808169
:1009D00085FFEDCFCE010E946204E9CFDF91CF9178
:1009E0000895FC01A5A1B6A18C9192A589238C93B1
:1009F000A5A1B6A18C9191A5892B8C9308950F93F5
:100A00001F93CF93DF93EC018B018DA981110DC052
:100A10001EBD0DB407FEFDCF0EBD0DB407FEFDCF0C
:100A2000DF91CF911F910F9108958130E9F480E11A
:100A3000E9A1FAA1908117FF14C02DA1922B9083F8
:100A4000EBA1FCA190812FA1922B9083EBA1FCA1A3
:100A5000908128A592239083000F111F815041F7A8
:100A6000DFCF2EA19223EBCFEF8DF8A11083CE0123
:100A70000E94F104EF8DF8A10083CE01DF91CF91A8
:100A80001F910F910C94F104FC0185A9811105C0FF
:100A90006EBD0DB407FEFDCF08958130E1F488E00E
:100AA000A1A1B2A19C9167FF13C025A1922B9C9399
:100AB000A3A1B4A19C9127A1922B9C93660FA3A103
:100AC000B4A19C9120A592239C93815049F708954D
:100AD00026A19223ECCFA78DB0A16C93CF010C94EB
:100AE000F104CF93DF93EC01ED8DFE8D80819CA905
:100AF00089238083CE010E944405ED8DFE8D808187
:100B00009BA9892B8083DF91CF910895AF92BF92EB
:100B1000CF92DF92EF92FF920F931F93CF93DF93C9
:100B2000EC015B016A01215031097901E60EF71EE3
:100B300001501109040F151F8091060190910701C2
:100B40008617970739F480910401909105018E155D
:100B50009F05A1F06AE2CE010E947105B501CE01A8
:100B60000E94FF04B701CE010E94FF04B09207016A
:100B7000A0920601F0920501E09204018091020129
:100B8000909103018C159D0539F48091000190919D
:100B9000010180179107A1F06BE2CE010E9471055F
:100BA000B601CE010E94FF04B801CE010E94FF04ED
:100BB000D0920301C0920201109301010093000141
:100BC0006CE2CE01DF91CF911F910F91FF90EF90DA
:100BD000DF90CF90BF90AF900C9471051F93CF938F
:100BE000DF93EC01162FE881F9810284F385E02D73
:100BF0000995112371F06DADCE010E947105E88158
:100C0000F9810688F789E02DCE01DF91CF911F9100
:100C100009946EADF1CFAF92BF92CF92DF92EF9277
:100C2000FF920F931F93CF93DF93EC0177FD38C0B2
:100C300088859985681779079CF557FD31C08A85A5
:100C40009B854817590764F569017A015B01E881C2
:100C5000F9810284F385E02DCE010995E881F981BF
:100C600002A4F3A5E02D01E010E021E030E0A701AF
:100C7000B501CE010995B601CE010E94FF04E881BD
:100C8000F9810688F789E02DCE01DF91CF911F9180
:100C90000F91FF90EF90DF90CF90BF90AF900994AD
:100CA000DF91CF911F910F91FF90EF90DF90CF9048
:100CB000BF90AF9008958F929F92AF92BF92CF92C4
:100CC000DF92EF92FF920F931F93CF93DF93EC018C
:100CD00049015701E881F98102A4F3A5E02D0995A6
:100CE0009401D8010E94DA1B6B017C01C114D1046C
:100CF000E104F10409F490C08DA9811115C081E0CF
:100D0000C81AD108E108F1088FEFC816D806E8061E
:100D1000F80609F481C0BEBC0DB407FEFDCFAEBC21
:100D20000DB407FEFDCFEBCF813009F045C081E067
:100D3000C81AD108E108F1088FEFC816D806E806EE
:100D4000F80609F469C09B2D88E0E9A1FAA1208189
:100D500097FF2CC03DA1232B2083EBA1FCA1208178
:100D60003FA1232B2083EBA1FCA1208138A52323C5
:100D70002083990F815049F79A2D88E0E9A1FAA1C3
:100D8000208197FF16C03DA1232B2083EBA1FCA15E
:100D900020813FA1232B2083EBA1FCA1208138A53A
:100DA00023232083990F815049F7C1CF3EA12323EC
:100DB000D3CF3EA12323E9CFBA1016C0CC0CDD1C43
:100DC000EE1CFF1CEF8DF8A1B08281E0C81AD1089B
:100DD000E108F1088FEFC816D806E806F806E1F03A
:100DE000CE010E94F104F1CF81E0C81AD108E108D8
:100DF000F1088FEFC816D806E806F80669F0EF8DFF
:100E0000F8A1B082CE010E94F104EF8DF8A1A0827A
:100E1000CE010E94F104E8CFDF91CF911F910F9195
:100E2000FF90EF90DF90CF90BF90AF909F908F900A
:100E300008958F929F92AF92BF92CF92DF92EF92DE
:100E4000FF920F931F93CF93DF934C01EB016A0145
:100E5000590137FF07C0C9010196C80FD91FB194C6
:100E6000A194B108F401A085B185CA17DB070CF085
:100E700058C017FF07C0C8010196C80ED91E1195AA
:100E800001951109F40182859385C816D9060CF0E5
:100E900048C0FE01EA0DFB1DAF014150510957FD4D
:100EA00040C0B601600F711F9B012150310937FD11
:100EB00038C0D7FF03C05F01D0E0C0E0D7FE03C059
:100EC0008B01D12CC12C4A175B071CF05D01AC1AB9
:100ED000BD0A281739071CF08C010C191D09D40113
:100EE000ED91FC910284F385E02DC40109959501F3
:100EF000A601BE01C4010E945B06D401ED91FC91E4
:100F00000688F789E02DC401DF91CF911F910F91E1
:100F1000FF90EF90DF90CF90BF90AF909F908F9019
:100F20000994DF91CF911F910F91FF90EF90DF9087
:100F3000CF90BF90AF909F908F900895EF92FF92C7
:100F40000F931F932115310529F00115110511F09B
:100F50000E9419071F910F91FF90EF9008958F92B3
:100F60009F92AF92BF92CF92DF92EF92FF920F9338
:100F70001F93CF93DF935C014B016A01E90177FD79
:100F800052C0DC0118968D919C91681779070CF07E
:100F90004AC0209709F447C037FF07C0C90101962E
:100FA000C80ED91ED195C195D109F50182859385C9
:100FB000C816D906C4F5A6014C0F5D1F9A01215031
:100FC000310937FD30C0D7FE03C0EA01D12CC12C56
:100FD000281739071CF0EC01CC19DD09D501ED917A
:100FE000FC910284F385E02DC501099578018E01FD
:100FF00021E030E0A601B401C5010E945B06D501E5
:10100000ED91FC910688F789E02DC501DF91CF9124
:101010001F910F91FF90EF90DF90CF90BF90AF9016
:101020009F908F900994DF91CF911F910F91FF9026
:10103000EF90DF90CF90BF90AF909F908F900895EA
:101040008F929F92AF92BF92CF92DF92EF92FF92D8
:101050000F931F93CF93DF935C016B014A01E9016A
:1010600057FD52C0DC011A968D919C914817590783
:101070000CF04AC0209709F447C037FF07C0C901E8
:101080000196C80ED91ED195C195D109F50180856B
:101090009185C816D906C4F5A6014C0F5D1F9A01AB
:1010A0002150310937FD30C0D7FE03C0EA01D12CF1
:1010B000C12C281739071CF0EC01CC19DD09D5012A
:1010C000ED91FC910284F385E02DC501099578012D
:1010D00001E010E09E01A401B601C5010E945B067B
:1010E000D501ED91FC910688F789E02DC501DF91CE
:1010F000CF911F910F91FF90EF90DF90CF90BF9015
:10110000AF909F908F900994DF91CF911F910F9195
:10111000FF90EF90DF90CF90BF90AF909F908F9017
:101120000895EF92FF920F931F93CF93DF9377FD74
:1011300032C0DC011896ED91FC916E177F075CF5CB
:101140002115310541F137FF07C0F90131964E0FE6
:101150005F1F319521953109DC011A96ED91FC91C3
:101160004E175F07C4F4EA01C20FD31FDE011197C7
:10117000B7FD11C057FF03C09E0150E040E0AE171D
:10118000BF071CF09F01241B350B7801890121E06A
:1011900030E00E945B06DF91CF911F910F91FF908D
:1011A000EF900895EF92FF920F931F93CF93DF93E9
:1011B00057FD31C0DC011A96ED91FC914E175F0787
:1011C00054F52115310539F137FF07C0F901319682
:1011D0006E0F7F1F319521953109DC011896ED9135
:1011E000FC916E177F07BCF4EB01C20FD31FDE0129
:1011F0001197B7FD10C077FF03C09E0170E060E05B
:10120000AE17BF071CF09F01261B370B780101E0CA
:1012100010E00E945B06DF91CF911F910F91FF902C
:10122000EF9008958F929F92AF92BF92CF92DF92EC
:10123000EF92FF920F931F93CF93DF9347012115F6
:10124000310509F44BC00115110509F447C037FFFA
:1012500007C0F90131966E0F7F1F31952195310935
:10126000DC011896AD90BC906A157B05BCF517FFA4
:1012700007C0F80131964E0F5F1F119501951109B6
:10128000DC011A96ED91FC914E175F073CF56B015E
:10129000C20ED31EE6012197D7FD20C07A01E00ED1
:1012A000F11ED7011197B7FD19C077FF03C0960152
:1012B00070E060E057FF03C0870150E040E0CA15CE
:1012C000DB051CF09501261B370BAE17BF071CF082
:1012D0008F01041B150B74010E945B06DF91CF91F7
:1012E0001F910F91FF90EF90DF90CF90BF90AF9044
:1012F0009F908F900895EF92FF920F931F93CF933B
:10130000DF93EC0177FD22C08885998568177907FE
:10131000ECF457FD1BC08A859B8548175907B4F428
:101320007901E881F98102A4F3A5E02D01E010E044
:1013300021E030E0CE010995B701CE01DF91CF91D8
:101340001F910F91FF90EF900C94FF04DF91CF91CC
:101350001F910F91FF90EF9008950895FC0187A9C8
:1013600087FD06C0A38DB48D9C9181A9892B8C9398
:1013700008958CBD9DBD0895FC0125A9211104C0CF
:1013800081A192A10C94B90908950F931F93CF9353
:10139000DF931F92CDB7DEB78C016370DC015696E8
:1013A0006C935697623009F468C0633009F46AC0E0
:1013B000613009F456C088E4898380EF90E0199683
:1013C0009C938E93189780E491E01B969C938E9348
:1013D0001A97C8010E94BC09D801D7968C91D7975B
:1013E00087FD09C05B96ED91FC915C978081D29658
:1013F0009C9189238083D8015D96ED91FC915E9745
:101400008081D4969C918923808366E3C8010E94E1
:101410004405D8015D96ED91FC915E978081D3964D
:101420009C91D397892B8083D5968C91823061F1E2
:101430006981C8010E944405D801D7968C91D7973D
:1014400087FD09C05B96ED91FC915C978081D196F8
:101450009C91892B80830F90DF91CF911F910F91E9
:10146000089588E2898380E491E0F801918780877C
:1014700080EF90E093878287ACCF88E8898380EF04
:1014800090E09DCF88EEEECFF80180A9882381F20D
:1014900069817A81C8010E94FF04CECFAF92BF92CA
:1014A000CF92DF92EF92FF920F931F93CF93DF9330
:1014B000EC01E62E8A01A22E0E94BC098FA987FDAD
:1014C00006C0EB8DFC8D80819AA989238083ED8DE8
:1014D000FE8D80819CA9892380836E2DCE010E9480
:1014E0004405ED8DFE8D80819BA9892B8083D12CB5
:1014F000C12CB12CCA14DB04E4F48DA9780182302C
:1015000079F488A9882361F0F801619171917F01D4
:10151000CE010E94FF04FFEFCF1ADF0A8701EACF56
:10152000FFEFEF1AFF0AF8016491CE010E94440513
:10153000F2CF8FA987FD06C0EB8DFC8D808199A924
:10154000892B8083DF91CF911F910F91FF90EF90B6
:10155000DF90CF90BF90AF900895611106C060E218
:1015600020E050E040E00C944E0A61E2F9CFCF93C6
:10157000DF93EC010E94BC098FA987FD06C0EB8DAB
:10158000FC8D80819AA989238083DF91CF91089572
:101590000895FC016370668B848195812681378173
:1015A000613039F0633029F0918780873387228753
:1015B0000895318720879387828708952F923F92DD
:1015C0004F925F926F927F928F929F92AF92BF9253
:1015D000CF92DF92EF92FF920F931F93CF93DF93FF
:1015E000CDB7DEB76A970FB6F894DEBF0FBECDBF9A
:1015F0009A8F898F7A8369834A01D22E18870F8345
:101600003701BC2CDC0159962D913C915A9721153C
:10161000310509F015C118968D919C91199768179D
:1016200079070CF0D7C11A968D919C9148175907EC
:101630000CF0D0C14C2C512CB6E0CB9E600D711D2E
:1016400011247C876B87161617060CF0C3C1EA2D90
:10165000F0E0FA87E98793E0EE0FFF1F9A95E1F734
:10166000F88BEF87CF01840F951F181619060CF021
:10167000B1C1A98DBA8D58968C91811104C0BFEA71
:10168000BD1508F4D394A98DBA8DED91FC911197F5
:101690000284F385E02DCD010995B5E0DB9EC00104
:1016A0001124E981FA81FC83EB83312C212C9C01EC
:1016B00028593F4F388F2F8B4A2D50E05E8B4D8B32
:1016C000EF89F88DE20DF31D44919E828D82D12C1D
:1016D000C12C69817A81620D731D7A8B698B842F8D
:1016E00090E09C8B8B8BE98DFA8DA081B18140FFBE
:1016F00082C0F1E0BF126FC0AF126DC01C96ED91B9
:10170000FC912F813885A4014C0D5D1D69897A8972
:10171000898D9A8D0995EB89FC89F595E7954E2F72
:101720005FEFC51AD50A6D817E818D899E89680F0C
:10173000791F7E836D8398E0C916D10481F6AFEFDF
:101740002A1A3A0AEB81FC81E40DF51DFC83EB8338
:10175000F5E02F16310409F0B3CF2F813885261517
:101760003705B9F0A98DBA8DED91FC91B1E0BB12AE
:1017700057C0AB1255C069817A816B5F7F4F00887B
:10178000F189E02D830128E030E0A401898D9A8D54
:101790000995A98DBA8DED91FC9111970688F7896D
:1017A000E02DCD016A960FB6F894DEBF0FBECDBF17
:1017B000DF91CF911F910F91FF90EF90DF90CF902D
:1017C000BF90AF909F908F907F906F905F904F9061
:1017D0003F902F9009941E96ED91FC91EF80F88434
:1017E00009851A8592014D815E816B817C81898D8D
:1017F0009A8D099590CF2F8138852615370509F4E4
:101800008ACF31E0B31207C0A31205C01C96ED9138
:10181000FC91930178CF1E96ED91FC917301E0CF7E
:101820006B857C85641975090684F785E02D730145
:101830000F8518899201A401898D9A8D0995A9CFE8
:10184000F90134969491329745915491D91AB7E0A1
:10185000DB9E400D511D1124F901259134913C8BE3
:101860002B8BFA0125903490FA01329674903196C0
:101870003491398B329664903196449041E04C1506
:1018800018F04A1508F07FC0662D062C000C770B67
:101890007C836B83842D042C000C990B9E838D8399
:1018A000A98DBA8DED91FC9111970284F385E02DFD
:1018B000CD010995512CD12CC12CEA2DF0E0FA87ED
:1018C000E9872B2D30E03C872B87A401440D511D67
:1018D00047FC5A95588F4F8B69817A81660D711D2F
:1018E00067FC7A957E876D877989C71608F051CF96
:1018F0002C2D30E04D815E81420F531FA985BA85A2
:101900004A9FC0014B9F900D5A9F900D1124FC01DE
:10191000E80DF91DF88BEF87852D612C4F89588DC7
:10192000420F531F5E8B4D8B671408F050C0442448
:101930004394480E877041F4C1010196EB89FC89FC
:10194000E20DF31DD4901C01D7FE19C0A98DBA8DEC
:10195000ED91FC91662D70E0B1E0BB1219C0AB12A5
:1019600017C02D853E85620F731F0484F585E02D19
:101970002F8138854D895E89898D9A8D0995DD0C79
:101980006394842DD1CF1E821D821C821B8288CF3E
:101990004B815C81640F751FAB85BC856A9FC0015C
:1019A0006B9F900D7A9F900D112469817A81680F49
:1019B000791F0684F785E02DEF80F88409851A8564
:1019C0009D014F855889898D9A8D0995D8CF570CDF
:1019D000C3948ACF6A960FB6F894DEBF0FBECDBF10
:1019E000DF91CF911F910F91FF90EF90DF90CF90FB
:1019F000BF90AF909F908F907F906F905F904F902F
:101A00003F902F9008958F929F92AF92CF92EF9236
:101A1000FF920F931F93CF93DF93EC01262F898DB5
:101A20009A8D009709F051C06A30D1F41D861C864A
:101A30008D8948E0849F900111248E859F85820FB7
:101A4000931F9F878E8781E090E0DF91CF911F9158
:101A50000F91FF90EF90CF90AF909F908F9008954F
:101A60006D3089F3CC88AD888F898823C1F08C854F
:101A70009D8536E0C39E800D911D112448855985B2
:101A80004817590764F44E855F851D861C8638E02B
:101A9000A39EC0011124840F951F9F878E87EA881B
:101AA000FB88088919894E855F856C857D85CE0107
:101AB0000E94DE0A2C898C859D8546E0249F800D3E
:101AC000911D11249D878C87BECF6A3069F41D86D5
:101AD0001C86FC013896E4912D898E859F85E29FB6
:101AE000800D911D1124ADCF6D3009F4ACCFFC01F8
:101AF00034963491631708F4A6CF3296E491E61732
:101B000008F4A1CFFC01329685909490462F431B98
:101B1000342F47E0349F800C911C1124F40132963D
:101B200034913196E4913323A9F1EE2399F1CC88D5
:101B3000F4013596E491AD884F89442301F10E2ECE
:101B4000000CFF0BE30FF11DCE9EA001CF9E500DA8
:101B500011246C857D85460F571F6885798564172C
:101B600075076CF44E855F851D861C86FC013896D2
:101B7000E491AE9E400D511D11245F874E87EA8887
:101B8000FB88088919894E855F856C857D85CE0126
:101B90000E94DE0AF4013496E4912C898C859D859F
:101BA000E29F800D911D11248DCF6F927F928F92B5
:101BB0009F92AF92BF92CF92DF92EF92FF920F93DC
:101BC0001F93CF93DF93EC016B015A013901480158
:101BD000E881F9810284F385E02D0995E881F98196
:101BE0000288F389E02D87019301A501B601CE019A
:101BF0000995A501480D591D41505109E881F98108
:101C00000288F389E02D9301B601CE010995E881A0
:101C1000F9810088F189E02D9401A501B601CE017A
:101C20000995C60CD71CB60161507109E881F9818C
:101C30000088F189E02D9401A501CE010995E88184
:101C4000F9810688F789E02DCE01DF91CF911F91B0
:101C50000F91FF90EF90DF90CF90BF90AF909F904B
:101C60008F907F906F9009946F927F928F929F9246
:101C7000AF92BF92CF92DF92EF92FF920F931F939A
:101C8000CF93DF935C01EB016A01490138018701C1
:101C9000DC01ED91FC916217730719F56416750666
:101CA0002CF0962D872D3A01C92ED82E9601261993
:101CB00037092F5F3F4F048CF58DE02DA301BE0146
:101CC000C5010995DF91CF911F910F91FF90EF9082
:101CD000DF90CF90BF90AF909F908F907F906F904C
:101CE00008954615570591F42617370724F0892DD6
:101CF0004B01C22FD82F9E01281939092F5F3F4F62
:101D0000068CF78DE02DA601B401DACF0284F385AD
:101D1000E02D0995D501ED91FC910488F589E02D20
:101D200083019401A601BE01C5010995D501ED917C
:101D3000FC910688F789E02DC501DF91CF911F91B5
:101D40000F91FF90EF90DF90CF90BF90AF909F905A
:101D50008F907F906F900994EF92FF920F931F9353
:101D6000DC011A960D911C911B9718962D913C91B0
:101D70001997ED91FC9100A0F1A1E02D7B0150E0BD
:101D800040E070E060E009951F910F91FF90EF90A7
:101D900008954F925F926F927F928F929F92AF922F
:101DA000BF92CF92DF92EF92FF920F931F93CF9348
:101DB000DF936C012B015A0139014801DC01ED91DF
:101DC000FC910284F385E02D0995E201640C751CF9
:101DD000D601ED91FC91C615D7055CF40088F18918
:101DE000E02D87019401A501BE01C6010995219648
:101DF000EFCF0688F789E02DC601DF91CF911F91C3
:101E00000F91FF90EF90DF90CF90BF90AF909F9099
:101E10008F907F906F905F904F9009948F929F92D8
:101E2000AF92BF92CF92DF92EF92FF920F931F93E8
:101E3000CF93DF93EC015B014A016901E881F981ED
:101E40000284F385E02D099595012C0D3D1D21504F
:101E50003109E881F9810488F589E02D7801840150
:101E6000A401B501CE010995E881F9810688F789B9
:101E7000E02DCE01DF91CF911F910F91FF90EF9058
:101E8000DF90CF90BF90AF909F908F9009948F92EA
:101E90009F92AF92BF92CF92DF92EF92FF920F93F9
:101EA0001F93CF93DF93EC015B014A016901780135
:101EB000E881F9810284F385E02D0995C80CD91CCD
:101EC000860101501109E881F9810488F589E02D26
:101ED0009501A401B501CE010995E881F981068833
:101EE000F789E02DCE01DF91CF911F910F91FF90E7
:101EF000EF90DF90CF90BF90AF909F908F9009941C
:101F00000895EF92FF920F931F93DC01ED91FC91E6
:101F100000A0F1A1E02D09951F910F91FF90EF9086
:101F200008950F931F93DC01ED91FC91068CF78DC2
:101F3000E02D09951F910F9108950F931F93DC01D8
:101F4000ED91FC91048CF58DE02D09951F910F9179
:101F50000895DC01ED91FC910084F185E02D099458
:101F60002F923F924F925F926F927F928F929F92A9
:101F7000AF92BF92CF92DF92EF92FF920F931F9397
:101F8000CF93DF9300D000D000D0CDB7DEB73C01B7
:101F90006A013E832D83FC82EB825801A41AB50AA4
:101FA000B7FE03C0B194A194B1088D809E80861ABB
:101FB000970A97FE03C09194819491088A149B0418
:101FC0005CF0902F812F0D811E819D838E839C2D2F
:101FD0008D2D6B01692F782F0C151D055CF09D81EF
:101FE0008E817E836D83692F782F902F812F8601BC
:101FF000C92ED82E1601201A310A2B012D813E81BF
:10200000421A530A57FE03C051944194510871017A
:1020100037FE03C03FEFE31AF30AF594E7948D818E
:102020009E81861797075CF5A1E0B0E0BA83A9838B
:10203000C016D1064CF1D301ED91FC910484F585D5
:10204000E02D2B813C81A8016D817E818A149B0447
:102050001CF04D815E81B801C3010995E418F508B3
:10206000F7FE0AC02D813E8189819A81280F391F90
:102070003E832D83E20CF31C0F5F1F4FD9CF2FEF50
:102080003FEF3A832983D4CF26960FB6F894DEBF6C
:102090000FBECDBFDF91CF911F910F91FF90EF90B9
:1020A000DF90CF90BF90AF909F908F907F906F9078
:1020B0005F904F903F902F9008950895CF93CFB7A2
:1020C000F89480912A02811127C0E7E2F6E084911A
:1020D000E9E0F6E09491E82FF0E0EE0FFF1FE952FF
:1020E000FA4FA591B491EC91E92321F461E08AE0E3
:1020F0000E94740361E08AE00E94A2038CB58061B3
:102100008CBD8CB580648CBD61E08DE00E94A20323
:1021100061E08BE00E94A20380912A028F5F80938E
:102120002A02CFBFCF91089520910502260F3327B1
:10213000331F21323105ECF42091E902FC0190E0DB
:1021400080E0243069F082E00895A0910502219199
:10215000AC014D515E4FA40FB52FB11D2C930196CC
:10216000861798F380910502680F6093050280E05E
:10217000089581E008951092E90281E08093C802F9
:102180001092C30261E082E10E94740361E083E186
:102190000E947403E9EBF0E080818E7F8083808170
:1021A0008D7F808388E48093B80085E48093BC00B1
:1021B0000895CF93DF9391E09093E2018823B9F0E3
:1021C000C091B800D091BA008091BC008A7B809306
:1021D000BC0060E082E10E94740360E083E10E9441
:1021E00074030E94BB10D093BA00C093B800DF9173
:1021F000CF910895CF92DF92EF92FF920F931F93AA
:10220000CF93DF93D82FC62F613208F098C00E9479
:10221000D3036B017C018091E90281116BC081E0E5
:102220008093E9028093C8029FEF9093C7021092B7
:10223000C6029C0F9093C5028093C4028091C40291
:10224000DD0FD82BD093C4028091C302813009F0F6
:1022500078C01092C3020E94D3036B017C0180916D
:10226000C4028093BB008091EB029091EC02A0919C
:10227000ED02B091EE02892B8A2B8B2BA1F00E94EC
:10228000D3030091EB021091EC022091ED0230910A
:10229000EE026C197D098E099F090617170728079A
:1022A000390708F448C08091BC0083FDD8CF85EC85
:1022B0008093BC000E94D3036B017C018091E902F2
:1022C000813009F440C08091C6028C1710F4C0918F
:1022D000C602E3EAF2E0A9ECB2E080E08C1355C05C
:1022E0008C2FDF91CF911F910F91FF90EF90DF9096
:1022F000CF9008958091EB029091EC02A091ED02B5
:10230000B091EE02892B8A2B8B2B09F484CF0E948B
:10231000D3030091EB021091EC022091ED02309179
:10232000EE026C197D098E099F0906171707280709
:10233000390708F070CF8091EA020E94D910C0E0FE
:10234000CFCF85EEB5CF8091EB029091EC02A091BA
:10235000ED02B091EE02892B8A2B8B2B09F4AECFC4
:102360000E94D3030091EB021091EC022091ED0248
:102370003091EE026C197D098E099F090617170727
:102380002807390708F09ACFD6CF91919D938F5F98
:10239000A5CF8F929F92AF92BF92CF92DF92EF9292
:1023A000FF920F931F93CF93DF93D091A202D1326C
:1023B00008F0D7C0182FC091A1020E94D3036B016F
:1023C0007C018091E90281116BC082E08093E90277
:1023D0001093C8028FEF8093C7021092C602D09369
:1023E000C502A1E8B2E0E3EAF2E080E0D81391C0D0
:1023F0001092C4028091C402CC0FC82BC093C402B7
:102400008091C302813009F088C01092C3020E94FB
:10241000D3036B017C018091C4028093BB00809147
:10242000EB029091EC02A091ED02B091EE02892BAB
:102430008A2B8B2BA1F00E94D3030091EB02109109
:10244000EC022091ED023091EE026C197D098E09AB
:102450009F09061717072807390708F442C080911B
:10246000BC0083FDD8CF85EC8093BC000E94D303D1
:102470006B017C018091E902823009F450C08091A7
:10248000C7028F3F09F46FC08091C702803209F400
:102490006CC08091C702803309F469C084E026C013
:1024A0008091EB029091EC02A091ED02B091EE02CE
:1024B000892B8A2B8B2B09F484CF0E94D303809025
:1024C000EB029090EC02A090ED02B090EE026C193D
:1024D0007D098E099F0986169706A806B90608F099
:1024E00070CF8091EA020E94D91085E0109280029C
:1024F0001092A20210927F02DF91CF911F910F9153
:10250000FF90EF90DF90CF90BF90AF909F908F9013
:1025100008959D9191938F5F69CF85EEA5CF8091AE
:10252000EB029091EC02A091ED02B091EE02892BAA
:102530008A2B8B2B09F49ECF0E94D3030091EB02D0
:102540001091EC022091ED023091EE026C197D09A0
:102550008E099F09061717072807390708F08ACF41
:10256000C0CF81E0C3CF80E0C1CF82E0BFCF83E0A6
:10257000BDCF08950895E091350280913402E817A7
:1025800030F4F0E0E753FD4F808190E008958FEF45
:102590009FEF089590913502809134022FEF3FEF25
:1025A000981748F4E92FF0E0E753FD4F208130E021
:1025B0009F5F90933502C9010895CF92DF92EF9209
:1025C000FF920F931F93CF93DF937C01CB018A017E
:1025D00020917F02222389F0EB016B01C40ED51EEE
:1025E000CC15DD0569F06991D701ED91FC91019061
:1025F000F081E02DC7010995F3CF642F0E9494105C
:10260000C801DF91CF911F910F91FF90EF90DF9064
:10261000CF900895CF93DF931F92CDB7DEB7698334
:1026200020917F022223F9F02091A202203258F05B
:1026300021E030E0FC013383228390E080E00F90C2
:10264000DF91CF91089580918002E82FF0E0EF575D
:10265000FD4F998190838F5F809380028093A202C7
:1026600081E090E0ECCF61E0CE0101960E949410F1
:10267000F7CF90E080E00895FC0101900020E9F799
:102680003197AF01481B590BBC018FEE92E00C94BF
:10269000F803CF93DF93D0E0C0E0009719F00E94D9
:1026A0003C13EC018CE691E00E943C138C0F9D1FC3
:1026B000DF91CF91089585ED8093BC008091EB026E
:1026C0009091EC02A091ED02B091EE020796A11D4F
:1026D000B11D23E0B695A795979587952A95D1F7D3
:1026E0002091BC0024FD03C01092E902089540919E
:1026F000EB025091EC026091ED027091EE02452BDD
:10270000462B472B69F30097A105B10541F025E35E
:102710002A95F1F700000197A109B109E1CF809155
:10272000EA020C94D910FF920F931F93CF93DF937B
:10273000F62E91E090937F0292E59093A102109281
:1027400080021092A202682F8EE893E00E940A1382
:1027500081E00E94C9118FE99FE00197F1F700C065
:1027600000006F2D82E50E94FA10D82F10923502DA
:10277000809334020FE512E0C0E080913502D81753
:1027800059F0FC1648F08EE893E00E94CA12CF5F21
:10279000F80181938F01F1CF8C2FDF91CF911F91A1
:1027A0000F91FF9008950F931F93CF93DF93C82F3E
:1027B0001091E5030091E303D8E01F3F59F48EBD6B
:1027C00000000DB407FEFDCF8EB5DF91CF911F91B4
:1027D0000F9108956C2F661F6627661F802F0E9439
:1027E0007403CC0F61E0812F0E94740360E0812F9D
:1027F0000E947403D15071F7E8CFCF93DF93D82FA5
:10280000C62F8091E2038F3F41F58091DE039091C6
:10281000DF032091E60331E030937F022093A10291
:10282000109280021092A202DC01ED91FC910190C5
:10283000F081E02D6D2F09958091DE039091DF03EB
:10284000DC01ED91FC910190F081E02D6C2F099558
:1028500081E0DF91CF910C94C9118091E5038F3F06
:1028600031F480918C0390918D030E94B90960E04E
:102870008091E2030E9474038D2F0E94D3138C2F4A
:102880000E94D31361E08091E203DF91CF910C9419
:1028900074038F929F92AF92BF92CF92DF92EF928A
:1028A000FF920F931F93CF93DF93C82F8091E20382
:1028B0008F3FE9F58091DE039091DF032091E603DD
:1028C00031E030937F022093A10210928002109297
:1028D000A202DC01ED91FC910190F081E02D6C2FC2
:1028E000099581E00E94C91161E08091E6030E9490
:1028F000FA1010923502809334028091DE03909199
:10290000DF03DC01ED91FC910284F385E02D099554
:10291000B82E8B2DDF91CF911F910F91FF90EF90EB
:10292000DF90CF90BF90AF909F908F90089580914F
:10293000E5038F3F31F480918C0390918D030E94C9
:10294000B90960E08091E2030E9474038C2F8068D3
:102950000E94D31380E00E94D313A090E503BFEF41
:10296000AB120CC01EBC00000DB407FEFDCFBEB400
:1029700061E08091E2030E947403CBCFC091E40335
:1029800007E010E0B12CD0E0FE01E551FA4F7F01E5
:10299000CE0181509A4F6C01C35ED94F61E08A2D00
:1029A0000E947403F7018491F6019490FE018490D3
:1029B0008820F9F081110E944B03E82DF0E0EE0F22
:1029C000FF1FEF51FA4FA591B4918C91982231E0FD
:1029D00009F430E0832F002E01C0880F0A94EAF733
:1029E000B82A60E08A2D0E94740301501109B0F6E4
:1029F000BFCF80E0F0CFCF93DF9380E00E944914F7
:102A0000C82FD0E0DC2FCC2781E00E9449149E0122
:102A1000282BC901DF91CF9108950E94FE1BCF9210
:102A2000DF92EF92FF920F931F93CF93DF93EC010E
:102A30006A017B01C114D104E104F10431F4C12C19
:102A400022E1D22E2AE7E22EF12C8FA987FD07C0C2
:102A500061E00E94A20361E08FA90E94740361E01B
:102A600088AD0E94A20361E088AD0E9474038DA925
:102A7000811181C040E052E16AE770E0C416D506DA
:102A8000E606F70640F476956795579547958F5F6C
:102A90008630A1F787E0982F906A969599A3809544
:102AA00081708AA31BA21CA21DA21EA20E945E10FE
:102AB0008EA987FD2AC061E00E94A20361E08EA971
:102AC0000E9474032FEF81EE94E0215080409040EB
:102AD000E1F700C0000060E08EA90E947403EFEFF0
:102AE000F1EE24E0E150F0402040E1F700C00000AA
:102AF00061E08EA90E9474038FEF93ECE9E08150AE
:102B00009040E040E1F700C000008EA987FF10C0B0
:102B100020E050E040E061E0CE010E944E0AFFEF6D
:102B200022E587E0F15020408040E1F700C000003E
:102B300008E615E0C8010196F8016491662309F4DE
:102B400066C00E5F1F4FFC01F490EF2CE894E7F88D
:102B50002E2DA801CE010E944E0A0E0D111DF7FE6A
:102B6000E9CFFFEF22E587E0F15020408040E1F718
:102B700000C00000DFCF0DE116E0F12C8130B9F488
:102B800061E08AA50E94A20360E08AA50E94740306
:102B900061E08CA50E94A20360E08CA50E947403F2
:102BA0008BA587FD85CF60E00E94A20381CFF8014D
:102BB0008491E82FF0E0EE0FFF1FED5EF94F859155
:102BC00094912F8D38A12817390741F461E08F2D9A
:102BD0000E94A20360E08F2D0E947403F3940F5FA4
:102BE0001F4FF4E1FF12E3CF61E08EA50E94A20324
:102BF00061E08EA50E9474038FA587FD59CF61E027
:102C00000E94A20361E08FA50E94740351CF80EF60
:102C100090E09987888780E491E09B878A87DF919D
:102C2000CF911F910F91FF90EF90DF90CF9008957B
:102C30001F920F920FB60F9211242F933F938F93F1
:102C40009F93AF93BF9380912C0290912D02A091FE
:102C50002E02B0912F0230912B0223E0230F2D374B
:102C600058F50196A11DB11D20932B0280932C02D3
:102C700090932D02A0932E02B0932F0280913002E8
:102C800090913102A0913202B09133020196A11DC0
:102C9000B11D8093300290933102A0933202B09321
:102CA0003302BF91AF919F918F913F912F910F90E0
:102CB0000FBE0F901F90189526E8230F0296A11DB6
:102CC000B11DD2CF1F920F920FB60F9211242F93E6
:102CD0003F934F935F936F937F938F939F93AF93A4
:102CE000BF93EF93FF938FEE92E00E946204FF91F7
:102CF000EF91BF91AF919F918F917F916F915F9174
:102D00004F913F912F910F900FBE0F901F901895EC
:102D10001F920F920FB60F9211242F938F939F93B0
:102D2000EF93FF93E091FF02F09100038081E09127
:102D30000503F091060382FD1BC09081809108037A
:102D40008F5F8F7320910903821741F0E091080390
:102D5000F0E0E151FD4F958F80930803FF91EF91D3
:102D60009F918F912F910F900FBE0F901F901895EC
:102D70008081F4CF1F920F920FB60F9211242F93E0
:102D80003F934F935F936F937F938F939F93AF93F3
:102D9000BF93EF93FF938091B900887F803609F449
:102DA0004AC0F0F5883209F4A7C018F5803109F45B
:102DB0009BC0B8F4882309F4F9C0883009F494C0A2
:102DC000FF91EF91BF91AF919F918F917F916F9103
:102DD0005F914F913F912F910F900FBE0F901F90D9
:102DE0001895883109F488C0803251F78093C70262
:102DF00014C0803409F49DC040F48033B9F38833A3
:102E0000F9F68093C70285ECB0C0803509F485C01F
:102E1000883509F496C0883499F60E945B13D0CFA8
:102E2000883909F48CC038F5883729F050F4883691
:102E300011F0803729F683E08093E902109229028D
:102E400057C0883809F47BC0803919F0803809F000
:102E5000B7CF80912902803208F071C0E091290239
:102E600081E08E0F809329028091BB00F0E0E75F44
:102E7000FD4F80833DC0803B39F0E0F4803A09F497
:102E800079C0883A09F09CCF84E08093E9021092DF
:102E9000060210920502E0910302F09104020995E6
:102EA0008091050281110FC081E08093050210928C
:102EB000E30109C0803C09F4A6CF883C09F4A3CF04
:102EC000883B09F07DCFE091060281E08E0F809370
:102ED0000602F0E0ED51FE4F80818093BB0090919F
:102EE00006028091050229C08091C4028093BB0034
:102EF00085EC8093BC0064CF9091C6028091C5029E
:102F0000981758F5E091C60281E08E0F8093C602B3
:102F1000F0E0ED55FD4F8081E9CFE091C60281E000
:102F20008E0F8093C6028091BB00F0E0ED55FD4FFF
:102F300080839091C6028091C5029817C8F285E8F7
:102F4000D8CFE091C60281E08E0F8093C6028091B7
:102F5000BB00F0E0ED55FD4F80838091C8028111E8
:102F60005CCF81E08093C30284EA8093BC0010921E
:102F7000E90226CF85EC8093BC001092E902809193
:102F80002902803230F4E0912902F0E0E75FFD4F42
:102F900010826091290270E0E0910702F09108022E
:102FA00089E092E00995109229020ACF1092C70297
:102FB00034CF682F8EE893E00C940A13EFEEF2E022
:102FC0001382128288EE93E0A0E0B0E084839583C0
:102FD000A683B7832CE131E03183208325EC30E0F8
:102FE0003587248724EC30E03787268720EC30E0D3
:102FF000318B208B21EC30E0338B228B22EC30E0C4
:10300000358B248B26EC30E0378B268B118E128E7D
:10301000138E148EECE8F3E020E520831182EEE8B5
:10302000F3E01382128284839583A683B7838EE2B2
:1030300091E091838083EEEDF3E088E084838FEF6D
:103040008783868385832DED33E033832283AAE94A
:10305000B3E013961C921E92129760EF70E01596E3
:103060007C936E93149740E451E017965C934E93D3
:10307000169719967C936E9318971B965C934E93B4
:103080001A9756961C9256971D961C921E921C9744
:103090001F961C921E921E9791E055969C935597F1
:1030A00054969C9354974FEF5FEF53965C934E93D7
:1030B000529751965C934E93509757969C9357977F
:1030C00058961C9258975A961C921E925997D596CC
:1030D0001C92D597D6968C93D6978AE0D7968C93E8
:1030E000D79789E0D8968C93D897DA961C921E923F
:1030F000D997DC961C921E92DB97DD961C92DD9789
:10310000DE961C92DE971092D9031092DA03109289
:10311000DB031092DC0390963C932E935F97E6E2DC
:10312000F6E0E491F0E0EE0FFF1FED5EF94F8591C0
:1031300094915E969C938E935D97E8E0F6E084917F
:10314000D3968C93D397E7E2F6E0E491F0E0EE0FAC
:10315000FF1FED5EF94F259134915C963C932E93C1
:103160005B97E9E0F6E0E491D196EC93D197E09596
:10317000D296EC93D297E82FE095D496EC93D4971F
:1031800080E491E08D939C9308952F923F924F920B
:103190005F926F927F929F92AF92BF92CF92DF9297
:1031A000EF92FF920F931F93CF93DF93CDB7DEB7CC
:1031B000A1970FB6F894DEBF0FBECDBF7894E09113
:1031C000FF02F091000382E08083E091FB02F09126
:1031D000FC021082E091FD02F091FE028FEC8083F0
:1031E00010920703E0910303F091040386E08083CB
:1031F000E0910103F0910203808180618083E0917E
:103200000103F0910203808188608083E0910103D3
:10321000F0910203808180688083E0910103F09146
:10322000020380818F7D80831092350210923402D8
:10323000109280021092A2020E94BB1089EBC82E4D
:1032400082E1D82ED0920402C09203020AEB12E16E
:10325000109308020093070240E050E0BA018AE9A7
:1032600093E00E940F159091E2039F3F09F4F7C18C
:103270008091E50361E08F3F09F0DFC1892F0E9453
:10328000A20361E08091E2030E9474030E945E1039
:1032900081E580938C0310928D031092E8031092C5
:1032A000E7030E94FB148131984009F0EEC162E00F
:1032B00083E00E94FD138FE39CE90197F1F700C0C2
:1032C000000010E0812F0E9449141F5F1134D1F7D4
:1032D00060E084E00E94FD1361E080E40E94FD1341
:1032E00061E08AE00E94FD1360E680E20E94FD1327
:1032F00062E081E20E94FD1364EA81E40E94FD1312
:1033000066E086E50E94FD1361E08AE40E94FD13F9
:1033100061E08BE40E94FD1360E08BE40E94FD13EA
:1033200061E088E50E94FD136FEF8BE00E94FD13C2
:1033300065E089E00E94FD138FE691E00E94491349
:103340006FE170E08AE993E00E94AC0E11E0109307
:103350007F0282E58093A102109280021092A20265
:1033600080EF90E00E94D91785E590E00E94D91780
:1033700081E00E94C91110937F0210928002109286
:10338000A2028BEF90E00E94D91790E080E00E94AB
:10339000D91781E00E94C91164E08AEF0E9493135B
:1033A000843009F0C3C180E38093540288E780939E
:1033B00055022FE532E086E392E043E652E0D90180
:1033C000ED919D01AE2FB0E004E0B595A7950A956B
:1033D000E1F7A85FBE4F6C91DC0190966C939097DB
:1033E000EF70F0E0E85FFE4F608191966C9302967B
:1033F0004217530721F710925E0289EA91E00E947A
:103400003C1384E592E00E94491399249394AAE026
:103410004A2E512C612C712CBCED2B2E312C1CE230
:10342000A12EBB24B39466E080E00E949313863003
:1034300009F049C190915F02909336028091600239
:103440008093370280916402282F30E0409161021E
:10345000B4E04B9FA0011124B9017595679575954E
:10346000679563707727462B572B5093390240930B
:10347000380240916202E4E04E9FA0011124F4E082
:1034800035952795FA95E1F723703327242B352BB3
:1034900030933B0220933A0220916302F4E02F9F85
:1034A00090011124482F4295469546954370242B50
:1034B00030933D0220933C02282F209521702093C9
:1034C0003E0286958170892580933F024091E001FC
:1034D0005091E1016091DE017091DF019D3808F4A7
:1034E000F7C0CA0101969093E1018093E001435136
:1034F00051092FE1E22EF12C04E110E024E130E04B
:103500008AE993E00E941907809137026091DE01F9
:103510007091DF014091E0015091E1018D3808F494
:10352000E3C0CB0101969093DF018093DE016351EC
:1035300071099FE1E92EF12C04E110E024E130E073
:103540008AE993E00E9419078091E0019091E101DE
:103550001816190624F01092E1011092E0018091F2
:10356000DE019091DF011816190624F01092DF0198
:103570001092DE018091E0019091E1018C32914046
:1035800024F0B092E101A092E0018091DE019091DF
:10359000DF018C3D910524F03092DF012092DE01A5
:1035A000C090DE01D090DF010D2C000CEE08FF086A
:1035B000F7FEA6C06DE28FEE92E00E9484042227FF
:1035C0003327A9012C193D094E095F0919A28E0163
:1035D0000F5D1F4FCA01B901A30192010E94B81BE0
:1035E000605DD8016E938D012115310541055105AE
:1035F00089F70115110519F0C8010E943C138CE6EA
:1036000091E00E943C134091E0015091E1016091F2
:10361000DE017091DF01EE24EA94FE2C04E110E05B
:1036200024E130E08AE993E00E9419078FE99FE0E6
:103630000197F1F700C00000F6CE0E94A20361E0FE
:103640008091E2030E94A20361E08091E3030E9463
:10365000A20360E08091E4030E94A20322CE1092B4
:10366000350210923402109280021092A2020E943F
:10367000BB10D0920402C092030210930802009380
:10368000070281E48093E6030CCE8091E2038F3F32
:10369000A9F08091E5038F3F89F485E580938C0341
:1036A00010928D0384E090E09093E8038093E70309
:1036B0000E94FB148131984009F4F9CD83E891E030
:1036C0000E944913FFCF84EC91E00E944913ABCED6
:1036D000943608F019CFCA0101979093E1018093C5
:1036E000E0014D5E5F4F05CF843608F02DCFCB0152
:1036F00001979093DF018093DE016D5E7F4F19CFBC
:10370000A701960119A28E010F5D1F4FCA01B901D1
:10371000A30192010E94B81B605DF80162938F01C2
:10372000211531054105510589F763CF84EC91E0FE
:103730000E9449138FEE92E00E94D10481E090E054
:10374000A1960FB6F894DEBF0FBECDBFDF91CF912B
:103750001F910F91FF90EF90DF90CF90BF90AF90AF
:103760009F907F906F905F904F903F902F90089523
:10377000A1E21A2EAA1BBB1BFD010DC0AA1FBB1F75
:10378000EE1FFF1FA217B307E407F50720F0A21BE7
:10379000B30BE40BF50B661F771F881F991F1A9454
:1037A00069F760957095809590959B01AC01BD017E
:1037B000CF0108950E94E21B332312F48A1B9B0B56
:1037C0000C94F31BA29FB001B39FC001A39F700D87
:1037D000811D1124911DB29F700D811D1124911D19
:1037E00008950E94E21BB7FF0895821B930B089572
:1037F000EE0FFF1F0590F491E02D099481E090E019
:0A380000F8940C94031CF894FFCF19
:10380A00FFFFFFFFFFFFFFFF30313233343536371A
:10381A003839414243444546000000008404F80315
:10382A002504D104560434044804000000000A1395
:10383A00DD123913800F4403CA12BB1200000000C4
:10384A00030DF80339135D100B06B70A7B09120939
:10385A009108D208B00FAE09C509AD0AAF07200812
:10386A009E07AC0E340ED50D0F1586050D0A0054B1
:10387A006F75636873637265656E207374617274C1
:10388A00656400436F756C646E277420737461728B
:10389A007420746F75636873637265656E20636FF5
:1038AA006E74726F6C6C6572002D2D2D2D2D2D2D61
:1038BA002D204E756E6368756B2077697468204990
:1038CA00643A20002A2A2A2A2A2A2A2A204E6F20E3
:0E38DA006E756E6368756B20666F756E6400A8
:00000001FF
