:100000000C9415030C943D030C943D030C943D0398
:100010000C943D030C943D030C943D030C94281662
:100020000C943D030C943D030C943D030C943D0350
:100030000C943D030C943D030C9432160C943D0338
:100040000C946E140C943D030C94DC140C94B614B4
:100050000C943D030C943D030C943D030C943D0320
:100060000C9409150C943D03EF03038002CF0300A9
:10007000C130ED0464031281E803850078CB0539B3
:100080002C003402F70120EA020000C00123C10164
:1000900010C5023E28C701863601483701003A01E3
:1000A00055B1020018B603088227F20100260101AB
:1000B000E00F0F312B0C0E084EF1370710030E091D
:1000C00000E10F000E1403110731C148080F0C3175
:1000D000360F118029800000000000003E5B4F5B5E
:1000E0003E3E6B4F6B3E1C3E7C3E1C183C7E3C18DB
:1000F0001C577D571C1C5E7F5E1C00183C1800FFBF
:10010000E7C3E7FF0018241800FFE7DBE7FF3048EC
:100110003A060E2629792926407F050507407F05E6
:10012000253F5A3CE73C5A7F3E1C1C08081C1C3EDD
:100130007F14227F22145F5F005F5F06097F017FCB
:10014000006689956A606060606094A2FFA294086E
:10015000047E040810207E201008082A1C08081CB1
:100160002A08081E101010100C1E0C1E0C30383EF1
:100170003830060E3E0E06000000000000005F0052
:10018000000007000700147F147F14242A7F2A121E
:100190002313086462364956205000080703000004
:1001A0001C2241000041221C002A1C7F1C2A080836
:1001B0003E08080080703000080808080800006049
:1001C000600020100804023E5149453E00427F4035
:1001D0000072494949462141494D331814127F1094
:1001E00027454545393C4A494931412111090736DE
:1001F00049494936464949291E000014000000407B
:100200003400000008142241141414141400412274
:10021000140802015909063E415D594E7C12111223
:100220007C7F494949363E414141227F4141413E1F
:100230007F494949417F090909013E414151737F85
:100240000808087F00417F41002040413F017F08AE
:100250001422417F404040407F021C027F7F0408FF
:10026000107F3E4141413E7F090909063E4151212F
:100270005E7F09192946264949493203017F010356
:100280003F4040403F1F2040201F3F4038403F63D9
:100290001408146303047804036159494D43007F33
:1002A0004141410204081020004141417F04020104
:1002B00002044040404040000307080020545478A6
:1002C000407F284444383844444428384444287FF4
:1002D000385454541800087E090218A4A49C787F4E
:1002E0000804047800447D40002040403D007F1019
:1002F00028440000417F40007C047804787C080496
:1003000004783844444438FC182424181824241849
:10031000FC7C08040408485454542404043F442436
:100320003C4040207C1C2040201C3C4030403C4451
:10033000281028444C9090907C4464544C4400080D
:10034000364100000077000000413608000201023B
:1003500004023C2623263C1EA1A161123A40402003
:100360007A3854545559215555794122545478427C
:10037000215554784020545579400C1E5272123940
:1003800055555559395454545939555454580000F9
:10039000457C410002457D420001457C407D1211B3
:1003A000127DF0282528F07C545545002054547CBB
:1003B000547C0A097F4932494949323A4444443A13
:1003C000324A4848303A4141217A3A424020780046
:1003D0009DA0A07D3D4242423D3D4040403D3C24E9
:1003E000FF2424487E4943662B2FFC2F2BFF09292D
:1003F000F620C0887E090320545479410000447DD2
:10040000413048484A32384040227A007A0A0A721B
:100410007D0D19317D2629292F28262929292630C5
:10042000484D4020380808080808080808382F10E8
:10043000C8ACBA2F102834FA00007B000008142A38
:10044000142222142A14085500550055AA55AA55FD
:10045000AAFF55FF55FF000000FF00101010FF001D
:10046000141414FF001010FF00FF1010F010F0140F
:100470001414FC001414F700FF0000FF00FF141414
:10048000F404FC141417101F10101F101F14141460
:100490001F00101010F0000000001F101010101F9F
:1004A00010101010F010000000FF101010101010AD
:1004B000101010FF10000000FF140000FF00FF00EC
:1004C000001F10170000FC04F41414171017141464
:1004D000F404F40000FF00F714141414141414F7B7
:1004E00000F7141414171410101F101F141414F410
:1004F000141010F010F000001F101F0000001F1457
:10050000000000FC140000F010F01010FF10FF14A9
:100510001414FF141010101F00000000F010FFFF53
:10052000FFFFFFF0F0F0F0F0FFFFFF000000000021
:10053000FFFF0F0F0F0F0F3844443844FC4A4A4A5C
:10054000347E02020606027E027E02635549416342
:100550003844443C04407E201E2006027E0202995C
:10056000A5E7A5991C2A492A1C4C7201724C304AF5
:100570004D4D303048784830BC625A463D3E49497E
:1005800049007E0101017E2A2A2A2A2A44445F4426
:100590004440514A444040444A51400000FF010356
:1005A000E080FF000008086B6B0836123624360620
:1005B0000F090F060000181800000010100030404E
:1005C000FF0101001F01011E00191D1712003C3C14
:1005D0003C3C000000000000000000240027002A2E
:1005E00000000000080002010000030407000000F2
:1005F00000000000000102040810204080010204F5
:100600000810200102040810200000000025002826
:10061000002B000404040404040404020202020285
:100620000203030303030300331611241FBECFEF9D
:10063000D8E0DEBFCDBF11E0A0E0B1E0E4EDF0E333
:1006400002C005900D92AC36B107D9F723E0ACE6B5
:10065000B1E001C01D92A536B207E1F713E0C5E194
:10066000D3E004C02197FE010E946218C431D10773
:10067000C9F70E940C170C9468180C940000809124
:10068000BD019091BE01891B990B089590E0FC017A
:10069000EF51FA4F2491FC01EB50FA4F3491FC01D9
:1006A000ED5EF94FE491EE23C9F0222339F02330B7
:1006B00001F1A8F4213019F1223029F1F0E0EE0F18
:1006C000FF1FE75FF94FA591B4918FB7F894EC91B4
:1006D000611126C030953E233C938FBF089527308B
:1006E000A9F02830C9F0243049F7809180008F7D2F
:1006F00003C0809180008F7780938000DFCF84B526
:100700008F7784BDDBCF84B58F7DFBCF8091B00028
:100710008F778093B000D2CF8091B0008F7DF9CFDA
:100720003E2BDACFCF93DF9390E0FC01EB50FA4FF2
:1007300024918D5E994FFC0184918823D1F090E043
:10074000880F991FFC01E952FA4FA591B491FC0161
:10075000E75FF94FC591D49161110EC09FB7F8942E
:100760008C91E22FE0958E238C932881E223E883FD
:100770009FBFDF91CF9108958FB7F894EC91E22B52
:10078000EC938FBFF6CF3FB7F8948091B901909169
:10079000BA01A091BB01B091BC0126B5A89B05C0D0
:1007A0002F3F19F00196A11DB11D3FBFBA2FA92FF0
:1007B000982F8827BC01CD01620F711D811D911DED
:1007C00042E0660F771F881F991F4A95D1F7089559
:1007D000CF92DF92EF92FF920F931F93CF93DF930D
:1007E0007C016A0110E000E00C151D0581F0EB01B1
:1007F000D701ED91FC910190F081E02D6991C70145
:100800000995892B21F00F5F1F4FBE01EDCFC80165
:10081000DF91CF911F910F91FF90EF90DF90CF90DC
:100820000895FC01538D448D252F30E0842F90E0F6
:10083000821B930B541710F0CF96089501970895DB
:10084000FC01918D828D981761F0A28DAE0FBF2FA4
:10085000B11D5D968C91928D9F5F9F73928F90E0FA
:1008600008958FEF9FEF0895FC01918D828D981769
:1008700031F0828DE80FF11D858D90E008958FEFA6
:100880009FEF0895FC01918D228D892F90E0805C6F
:100890009F4F821B91098F7399270895FC01A48DA6
:1008A000A80FB92FB11DA35ABF4F2C91848D90E092
:1008B00001968F739927848FA689B7892C93A08975
:1008C000B1898C91837080648C93938D848D9813FF
:1008D00006C00288F389E02D80818F7D8083089592
:1008E000EF92FF920F931F93CF93DF93EC01F62EBD
:1008F00081E0888F9B8D8C8D98131AC0E889F989C7
:10090000808185FF15C09FB7F894EE89FF896083C9
:10091000E889F98980818370806480839FBF81E04A
:1009200090E0DF91CF911F910F91FF90EF9008958C
:100930000B8D10E00F5F1F4F0F731127E02E8C8D72
:100940008E110CC00FB607FCFACFE889F9898081B7
:1009500085FFF5CFCE010E944E04F1CFEB8DEC0F59
:10096000FD2FF11DE35AFF4FF0829FB7F8940B8FD4
:10097000EA89FB8980818062D0CFCF93DF93EC013D
:10098000888D8823B9F0AA89BB89E889F9898C9177
:1009900085FD03C0808186FD0DC00FB607FCF7CF33
:1009A0008C9185FFF2CF808185FFEDCFCE010E9433
:1009B0004E04E9CFDF91CF9108950895FC01637053
:1009C000668B8481958126813781623021F0633086
:1009D00039F0613029F09187808733872287089525
:1009E000318720879387828708952F923F924F9275
:1009F0005F926F927F928F929F92AF92BF92CF92AF
:100A0000DF92EF92FF920F931F93CF93DF93CDB7B7
:100A1000DEB76A970FB6F894DEBF0FBECDBF9A8FD0
:100A2000898F7A8369834A01D22E18870F83370111
:100A3000BC2CDC0159962D913C915A97211531051A
:100A400009F015C118968D919C911997681779072F
:100A50000CF0D7C11A968D919C91481759070CF04C
:100A6000D0C14C2C512CB6E0CB9E600D711D1124D1
:100A70007C876B87161617060CF0C3C1EA2DF0E0D1
:100A8000FA87E98793E0EE0FFF1F9A95E1F7F88B5D
:100A9000EF87CF01840F951F181619060CF0B1C10E
:100AA000A98DBA8D58968C91811104C0BFEABD15ED
:100AB00008F4D394A98DBA8DED91FC91119702841D
:100AC000F385E02DCD010995B5E0DB9EC001112431
:100AD000E981FA81FC83EB83312C212C9C01295282
:100AE0003F4F388F2F8B4A2D50E05E8B4D8BEF8917
:100AF000F88DE20DF31D44919E828D82D12CC12C84
:100B000069817A81620D731D7A8B698B842F90E0E5
:100B10009C8B8B8BE98DFA8DA081B18140FF82C0C7
:100B2000F1E0BF126FC0AF126DC01C96ED91FC9149
:100B30002F813885A4014C0D5D1D69897A89898DC5
:100B40009A8D0995EB89FC89F595E7954E2F5FEF16
:100B5000C51AD50A6D817E818D899E89680F791F9E
:100B60007E836D8398E0C916D10481F6AFEF2A1A0F
:100B70003A0AEB81FC81E40DF51DFC83EB83F5E083
:100B80002F16310409F0B3CF2F813885261537058C
:100B9000B9F0A98DBA8DED91FC91B1E0BB1257C0AF
:100BA000AB1255C069817A816B5F7F4F0088F189F4
:100BB000E02D830128E030E0A401898D9A8D09950C
:100BC000A98DBA8DED91FC9111970688F789E02DDA
:100BD000CD016A960FB6F894DEBF0FBECDBFDF9190
:100BE000CF911F910F91FF90EF90DF90CF90BF902A
:100BF000AF909F908F907F906F905F904F903F90BD
:100C00002F9009941E96ED91FC91EF80F884098550
:100C10001A8592014D815E816B817C81898D9A8DCF
:100C2000099590CF2F8138852615370509F48ACF8D
:100C300031E0B31207C0A31205C01C96ED91FC91E0
:100C4000930178CF1E96ED91FC917301E0CF6B85F7
:100C50007C85641975090684F785E02D73010F857D
:100C600018899201A401898D9A8D0995A9CFF9015E
:100C700034969491329745915491D91AB7E0DB9EFE
:100C8000400D511D1124F901259134913C8B2B8B82
:100C9000FA0125903490FA0132967490319634918D
:100CA000398B329664903196449041E04C1518F09F
:100CB0004A1508F07FC0662D062C000C770B7C834C
:100CC0006B83842D042C000C990B9E838D83A98D3E
:100CD000BA8DED91FC9111970284F385E02DCD0141
:100CE0000995512CD12CC12CEA2DF0E0FA87E98727
:100CF0002B2D30E03C872B87A401440D511D47FC70
:100D00005A95588F4F8B69817A81660D711D67FCEA
:100D10007A957E876D877989C71608F051CF2C2D7B
:100D200030E04D815E81420F531FA985BA854A9FED
:100D3000C0014B9F900D5A9F900D1124FC01E80DAE
:100D4000F91DF88BEF87852D612C4F89588D420F47
:100D5000531F5E8B4D8B671408F050C0442443949E
:100D6000480E877041F4C1010196EB89FC89E20DC0
:100D7000F31DD4901C01D7FE19C0A98DBA8DED9139
:100D8000FC91662D70E0B1E0BB1219C0AB1217C028
:100D90002D853E85620F731F0484F585E02D2F811C
:100DA00038854D895E89898D9A8D0995DD0C63940E
:100DB000842DD1CF1E821D821C821B8288CF4B8145
:100DC0005C81640F751FAB85BC856A9FC0016B9FFA
:100DD000900D7A9F900D112469817A81680F791F97
:100DE0000684F785E02DEF80F88409851A859D013A
:100DF0004F855889898D9A8D0995D8CF570CC39402
:100E00008ACF6A960FB6F894DEBF0FBECDBFDF91D2
:100E1000CF911F910F91FF90EF90DF90CF90BF90F7
:100E2000AF909F908F907F906F905F904F903F908A
:100E30002F9008958F929F92AF92CF92EF92FF9250
:100E40000F931F93CF93DF93EC01262F898D9A8DFB
:100E5000009709F051C06A30D1F41D861C868D8937
:100E600048E0849F900111248E859F85820F931FF7
:100E70009F878E8781E090E0DF91CF911F910F9146
:100E8000FF90EF90CF90AF909F908F9008956D302E
:100E900089F3CC88AD888F898823C1F08C859D85A6
:100EA00036E0C39E800D911D112448855985481751
:100EB000590764F44E855F851D861C8638E0A39E25
:100EC000C0011124840F951F9F878E87EA88FB88B5
:100ED000088919894E855F856C857D85CE010E94C4
:100EE000F5042C898C859D8546E0249F800D911DFD
:100EF00011249D878C87BECF6A3069F41D861C86BD
:100F0000FC013896E4912D898E859F85E29F800DA6
:100F1000911D1124ADCF6D3009F4ACCFFC01349696
:100F20003491631708F4A6CF3296E491E61708F4DB
:100F3000A1CFFC01329685909490462F431B342F0D
:100F400047E0349F800C911C1124F40132963491B7
:100F50003196E4913323A9F1EE2399F1CC88F40181
:100F60003596E491AD884F89442301F10E2E000C93
:100F7000FF0BE30FF11DCE9EA001CF9E500D11245B
:100F80006C857D85460F571F6885798564177507C1
:100F90006CF44E855F851D861C86FC013896E491B5
:100FA000AE9E400D511D11245F874E87EA88FB8855
:100FB000088919894E855F856C857D85CE010E94E3
:100FC000F504F4013496E4912C898C859D85E29F8B
:100FD000800D911D11248DCF6F927F928F929F92E1
:100FE000AF92BF92CF92DF92EF92FF920F931F9337
:100FF000CF93DF93EC016B015A0139014801E8817D
:10100000F9810284F385E02D0995E881F981028850
:10101000F389E02D87019301A501B601CE01099561
:10102000A501480D591D41505109E881F9810288F7
:10103000F389E02D9301B601CE010995E881F9818C
:101040000088F189E02D9401A501B601CE01099532
:10105000C60CD71CB60161507109E881F98100887E
:10106000F189E02D9401A501CE010995E881F9816E
:101070000688F789E02DCE01DF91CF911F910F9166
:10108000FF90EF90DF90CF90BF90AF909F908F90A8
:101090007F906F9009948F929F92AF92BF92CF9260
:1010A000DF92EF92FF920F931F93CF93DF934C0148
:1010B0006B015A01E901DC01ED91FC9162177307A4
:1010C00009F50417150724F48B2D5801042F182F48
:1010D0000A191B0998012F5F3F4F048CF58DE02DF5
:1010E0008701A501B601C4010995DF91CF911F9138
:1010F0000F91FF90EF90DF90CF90BF90AF909F90B7
:101100008F9008954017510781F42617370724F46C
:101110008D2D6901C62FD82F9E012C193D092F5FF7
:101120003F4F068CF78DE02DDBCF0284F385E02D59
:101130000995D401ED91FC910488F589E02D9E017B
:10114000A501B601C4010995D401ED91FC91068871
:10115000F789E02DC401DF91CF911F910F91FF908E
:10116000EF90DF90CF90BF90AF909F908F900994B9
:10117000EF92FF920F931F93DC011A960D911C9131
:101180001B9718962D913C911997ED91FC9100A019
:10119000F1A1E02D7B0150E040E070E060E00995B6
:1011A0001F910F91FF90EF9008954F925F926F9271
:1011B0007F928F929F92AF92BF92CF92DF92EF92E7
:1011C000FF920F931F93CF93DF936C012B015A0172
:1011D00039014801DC01ED91FC910284F385E02D99
:1011E0000995E201640C751CD601ED91FC91C615C0
:1011F000D7055CF40088F189E02D87019401A501F1
:10120000BE01C60109952196EFCF0688F789E02D2A
:10121000C601DF91CF911F910F91FF90EF90DF906A
:10122000CF90BF90AF909F908F907F906F905F9086
:101230004F9009948F929F92AF92BF92CF92DF927C
:10124000EF92FF920F931F93CF93DF93EC015B011B
:101250004A016901E881F9810284F385E02D09954D
:1012600095012C0D3D1D21503109E881F98104883B
:10127000F589E02D78018401A401B501CE0109951D
:10128000E881F9810688F789E02DCE01DF91CF91C1
:101290001F910F91FF90EF90DF90CF90BF90AF9094
:1012A0009F908F9009948F929F92AF92BF92CF920E
:1012B000DF92EF92FF920F931F93CF93DF93EC0196
:1012C0005B014A0169017801E881F9810284F385B3
:1012D000E02D0995C80CD91C860101501109E8813F
:1012E000F9810488F589E02D9501A401B501CE01AD
:1012F0000995E881F9810688F789E02DCE01DF9113
:10130000CF911F910F91FF90EF90DF90CF90BF9002
:10131000AF909F908F9009940895EF92FF920F9352
:101320001F93DC01ED91FC9100A0F1A1E02D099546
:101330001F910F91FF90EF9008950F931F93DC0181
:10134000ED91FC91068CF78DE02D09951F910F9181
:1013500008950F931F93DC01ED91FC91048CF58DA2
:10136000E02D09951F910F910895DC01ED91FC91FD
:101370000084F185E02D09942F923F924F925F9265
:101380006F927F928F929F92AF92BF92CF92DF9295
:10139000EF92FF920F931F93CF93DF9300D000D073
:1013A00000D0CDB7DEB72C017E836D836A01590171
:1013B000C801FC82EB824801841A950A97FE03C09B
:1013C00091948194910835012D813E81621A730AAE
:1013D00077FE03C0719461947108681479045CF419
:1013E0003A2D2B2D5C01832F922F3D812E81DE82A1
:1013F000CD82C32ED22EAD81BE81AA16BB065CF46F
:101400003C2D2D2D6C01832F922F3D812E81BE828C
:10141000AD82A32EB22E85012D813E81021B130BBE
:101420001C012C183D0837FE03C03194219431086B
:10143000780117FF03C03FEFE31AF30AF594E7942E
:10144000C816D90664F18FEF9FEF9A8389832D81A7
:101450003E81A216B30644F1D201ED91FC910484C1
:10146000F585E02D2B813C814D815E81B6016814AC
:1014700079041CF0A6016D817E81C2010995E218F4
:10148000F308F7FE06C029813A81C20ED31EE00E92
:10149000F11E8D819E8101969E838D83D8CFA1E020
:1014A000B0E0BA83A983D3CF26960FB6F894DEBFF7
:1014B0000FBECDBFDF91CF911F910F91FF90EF90A5
:1014C000DF90CF90BF90AF909F908F907F906F9064
:1014D0005F904F903F902F900895FC01A5A1B6A179
:1014E0008C9192A589238C93A5A1B6A18C9191A5ED
:1014F000892B8C9308950F931F93CF93DF93EC0167
:101500008B018DA981110DC01EBD0DB407FEFDCF4D
:101510000EBD0DB407FEFDCFDF91CF911F910F914E
:1015200008958130E9F480E1E9A1FAA1908117FFE3
:1015300014C02DA1922B9083EBA1FCA190812FA12F
:10154000922B9083EBA1FCA1908128A592239083FC
:10155000000F111F815041F7DFCF2EA19223EBCF57
:10156000EF8DF8A11083CE010E946D0AEF8DF8A1D6
:101570000083CE01DF91CF911F910F910C946D0AE2
:10158000FC0185A9811105C06EBD0DB407FEFDCF1C
:1015900008958130E1F488E0A1A1B2A19C9167FF98
:1015A00013C025A1922B9C93A3A1B4A19C9127A128
:1015B000922B9C93660FA3A1B4A19C9120A592238A
:1015C0009C93815049F7089526A19223ECCFA78DD3
:1015D000B0A16C93CF010C946D0ACF93DF93EC0113
:1015E000ED8DFE8D80819CA989238083CE010E9490
:1015F000C00AED8DFE8D80819BA9892B8083DF91B0
:10160000CF910895FC0185A9811104C091A182A107
:101610009CBD8DBD08951F93CF93DF93EC01162FD2
:10162000E881F9810284F385E02D0995112371F099
:101630006DADCE010E94ED0AE881F9810688F78937
:10164000E02DCE01DF91CF911F9109946EADF1CFC6
:10165000AF92BF92CF92DF92EF92FF920F931F93C0
:10166000CF93DF93EC017B016A01590177FD35C00F
:10167000888599856817790784F557FD2EC08A8576
:101680009B85481759074CF5E881F9810284F38559
:10169000E02DCE010995E881F98102A4F3A5E02DA2
:1016A00001E010E021E030E0A601B701CE0109958C
:1016B000B501CE010E947B0AE881F9810688F7898D
:1016C000E02DCE01DF91CF911F910F91FF90EF9010
:1016D000DF90CF90BF90AF900994DF91CF911F9191
:1016E0000F91FF90EF90DF90CF90BF90AF90089553
:1016F0008F929F92AF92BF92CF92DF92EF92FF9222
:101700000F931F93CF93DF93EC0149015701E881B9
:10171000F98102A4F3A5E02D09959401D8010E9456
:1017200044186B017C01C114D104E104F10409F4F3
:1017300090C08DA9811115C081E0C81AD108E108B7
:10174000F1088FEFC816D806E806F80609F481C03C
:10175000BEBC0DB407FEFDCFAEBC0DB407FEFDCF81
:10176000EBCF813009F045C081E0C81AD108E1080B
:10177000F1088FEFC816D806E806F80609F469C024
:101780009B2D88E0E9A1FAA1208197FF2CC03DA103
:10179000232B2083EBA1FCA120813FA1232B2083BD
:1017A000EBA1FCA1208138A523232083990F815030
:1017B00049F79A2D88E0E9A1FAA1208197FF16C088
:1017C0003DA1232B2083EBA1FCA120813FA1232B52
:1017D0002083EBA1FCA1208138A523232083990F2E
:1017E000815049F7C1CF3EA12323D3CF3EA123236C
:1017F000E9CFBA1016C0CC0CDD1CEE1CFF1CEF8D1F
:10180000F8A1B08281E0C81AD108E108F1088FEF91
:10181000C816D806E806F806E1F0CE010E946D0A67
:10182000F1CF81E0C81AD108E108F1088FEFC8169E
:10183000D806E806F80669F0EF8DF8A1B082CE016F
:101840000E946D0AEF8DF8A1A082CE010E946D0A60
:10185000E8CFDF91CF911F910F91FF90EF90DF9034
:10186000CF90BF90AF909F908F9008958F929F924E
:10187000AF92BF92CF92DF92EF92FF920F931F939E
:10188000CF93DF934C01EB016A01590137FF07C089
:10189000C9010196C80FD91FB194A194B108F401F0
:1018A000A085B185CA17DB070CF058C017FF07C029
:1018B000C8010196C80ED91E119501951109F401B0
:1018C00082859385C816D9060CF048C0FE01EA0D42
:1018D000FB1DAF014150510957FD40C0B601600FDB
:1018E000711F9B012150310937FD38C0D7FF03C05C
:1018F0005F01D0E0C0E0D7FE03C08B01D12CC12C2A
:101900004A175B071CF05D01AC1ABD0A281739079E
:101910001CF08C010C191D09D401ED91FC9102847D
:10192000F385E02DC40109959501A601BE01C4010E
:101930000E94780BD401ED91FC910688F789E02D87
:10194000C401DF91CF911F910F91FF90EF90DF9035
:10195000CF90BF90AF909F908F900994DF91CF91DF
:101960001F910F91FF90EF90DF90CF90BF90AF90BD
:101970009F908F900895EF92FF920F931F932115E0
:10198000310529F00115110511F00E94360C1F9147
:101990000F91FF90EF9008958F929F92AF92BF9218
:1019A000CF92DF92EF92FF920F931F93CF93DF932B
:1019B0005C014B016A01E90177FD52C0DC01189618
:1019C0008D919C91681779070CF04AC0209709F413
:1019D00047C037FF07C0C9010196C80ED91ED1956F
:1019E000C195D109F50182859385C816D906C4F53C
:1019F000A6014C0F5D1F9A012150310937FD30C0FF
:101A0000D7FE03C0EA01D12CC12C281739071CF0DE
:101A1000EC01CC19DD09D501ED91FC910284F3852F
:101A2000E02DC501099578018E0121E030E0A60185
:101A3000B401C5010E94780BD501ED91FC91068897
:101A4000F789E02DC501DF91CF911F910F91FF9094
:101A5000EF90DF90CF90BF90AF909F908F900994C0
:101A6000DF91CF911F910F91FF90EF90DF90CF907A
:101A7000BF90AF909F908F9008958F929F92AF925A
:101A8000BF92CF92DF92EF92FF920F931F93CF936B
:101A9000DF935C016B014A01E90157FD52C0DC0193
:101AA0001A968D919C91481759070CF04AC02097BF
:101AB00009F447C037FF07C0C9010196C80ED91EF7
:101AC000D195C195D109F50180859185C816D906B2
:101AD000C4F5A6014C0F5D1F9A012150310937FD55
:101AE00030C0D7FE03C0EA01D12CC12C281739071A
:101AF0001CF0EC01CC19DD09D501ED91FC910284BB
:101B0000F385E02DC5010995780101E010E09E0103
:101B1000A401B601C5010E94780BD501ED91FC919D
:101B20000688F789E02DC501DF91CF911F910F91B4
:101B3000FF90EF90DF90CF90BF90AF909F908F90ED
:101B40000994DF91CF911F910F91FF90EF90DF905B
:101B5000CF90BF90AF909F908F900895EF92FF929B
:101B60000F931F93CF93DF9377FD32C0DC0118965C
:101B7000ED91FC916E177F075CF52115310541F160
:101B800037FF07C0F90131964E0F5F1F3195219540
:101B90003109DC011A96ED91FC914E175F07C4F4F0
:101BA000EA01C20FD31FDE011197B7FD11C057FF25
:101BB00003C09E0150E040E0AE17BF071CF09F013C
:101BC000241B350B7801890121E030E00E94780B5D
:101BD000DF91CF911F910F91FF90EF900895EF92B9
:101BE000FF920F931F93CF93DF9357FD31C0DC011A
:101BF0001A96ED91FC914E175F0754F521153105AA
:101C000039F137FF07C0F90131966E0F7F1F31950B
:101C100021953109DC011896ED91FC916E177F0733
:101C2000BCF4EB01C20FD31FDE011197B7FD10C04A
:101C300077FF03C09E0170E060E0AE17BF071CF0A5
:101C40009F01261B370B780101E010E00E94780B02
:101C5000DF91CF911F910F91FF90EF9008958F9298
:101C60009F92AF92BF92CF92DF92EF92FF920F932B
:101C70001F93CF93DF9347012115310509F44BC022
:101C80000115110509F447C037FF07C0F901319666
:101C90006E0F7F1F319521953109DC011896AD90AB
:101CA000BC906A157B05BCF517FF07C0F80131969B
:101CB0004E0F5F1F119501951109DC011A96ED91E8
:101CC000FC914E175F073CF56B01C20ED31EE60177
:101CD0002197D7FD20C07A01E00EF11ED7011197A0
:101CE000B7FD19C077FF03C0960170E060E057FFB1
:101CF00003C0870150E040E0CA15DB051CF09501E8
:101D0000261B370BAE17BF071CF08F01041B150BEA
:101D100074010E94780BDF91CF911F910F91FF907A
:101D2000EF90DF90CF90BF90AF909F908F900895ED
:101D3000EF92FF920F931F93CF93DF93EC01790102
:101D400077FD21C08885998568177907E4F457FDE8
:101D50001AC08A859B8548175907ACF4E881F98138
:101D600002A4F3A5E02D01E010E021E030E0CE0177
:101D70000995B701CE01DF91CF911F910F91FF908F
:101D8000EF900C947B0ADF91CF911F910F91FF9000
:101D9000EF900895CF93DF93EC010E94020B8FA97F
:101DA00087FD06C0EB8DFC8D80819AA989238083F5
:101DB000DF91CF9108950895AF92BF92CF92DF92B5
:101DC000EF92FF920F931F93CF93DF93EC01E62ED8
:101DD0008A01A22E0E94020B8FA987FD06C0EB8DFF
:101DE000FC8D80819AA989238083ED8DFE8D808171
:101DF0009CA9892380836E2DCE010E94C00AED8D9F
:101E0000FE8D80819BA9892B8083D12CC12CB12C84
:101E1000CA14DB04E4F48DA97801823079F488A92E
:101E2000882361F0F801619171917F01CE010E94D8
:101E30007B0AFFEFCF1ADF0A8701EACFFFEFEF1A25
:101E4000FF0AF8016491CE010E94C00AF2CF8FA967
:101E500087FD06C0EB8DFC8D808199A9892B80833D
:101E6000DF91CF911F910F91FF90EF90DF90CF9076
:101E7000BF90AF900895FC0187A987FD06C0A38D90
:101E8000B48D9C9181A9982B9C930895AF92BF9299
:101E9000CF92DF92EF92FF920F931F93CF93DF9336
:101EA000EC015B016A01215031097901E60EF71E50
:101EB00001501109040F151F80910601909107012F
:101EC0008617970739F480910401909105018E15CA
:101ED0009F05A1F06AE2CE010E94ED0AB501CE0194
:101EE0000E947B0AB701CE010E947B0AB0920701D3
:101EF000A0920601F0920501E09204018091020196
:101F0000909103018C159D0539F480910001909109
:101F1000010180179107A1F06BE2CE010E94ED0A4A
:101F2000B601CE010E947B0AB801CE010E947B0A55
:101F3000D0920301C09202011093010100930001AD
:101F40006CE2CE01DF91CF911F910F91FF90EF9046
:101F5000DF90CF90BF90AF900C94ED0A611106C056
:101F600060E220E050E040E00C94DC0E61E2F9CF4A
:101F70000F931F93CF93DF930F92CDB7DEB78C01F2
:101F80006370DC0156966C935697623009F468C012
:101F9000633009F46AC0613009F456C088E489836B
:101FA00080EF90E019969C938E93189780E491E0CF
:101FB0001B969C938E931A97C8010E94020BD8011E
:101FC000D7968C91D79787FD09C05B96ED91FC91D0
:101FD0005C978081D2969C9189238083D8015D96FD
:101FE000ED91FC915E978081D4969C9189238083AA
:101FF00066E3C8010E94C00AD8015D96ED91FC918C
:102000005E978081D3969C91D397892B8083D596B8
:102010008C91823061F16981C8010E94C00AD801A7
:10202000D7968C91D79787FD09C05B96ED91FC916F
:102030005C978081D1969C91892B80830F90DF9152
:10204000CF911F910F91089588E2898380E491E0F8
:10205000F8019187808780EF90E093878287ACCFEB
:1020600088E8898380EF90E09DCF88EEEECFF8017D
:1020700080A9882381F269817A81C8010E947B0A44
:10208000CECF089520918F01260F3327331F2132A1
:102090003105ECF420914E02FC0190E080E0243008
:1020A00069F082E00895A0918F012191AC0143591C
:1020B0005E4FA40FB52FB11D2C930196861798F390
:1020C00080918F01680F60938F0180E0089581E017
:1020D000089510924E0281E080934D0210922802E2
:1020E00061E082E10E94460361E083E10E944603D1
:1020F000E9EBF0E080818E7F808380818D7F80831B
:1021000088E48093B80085E48093BC000895CF9361
:10211000DF9391E090936C018823B9F0C091B800EF
:10212000D091BA008091BC008A7B8093BC0060E0B3
:1021300082E10E94460360E083E10E9446030E9420
:102140006910D093BA00C093B800DF91CF91089581
:102150008F929F92AF92BF92CF92DF92EF92FF92B7
:102160000F931F93CF93DF9310917702C1E0113249
:1021700008F09EC0D09176020E94C3036B017C01DF
:10218000C0914E02C1116EC082E080934E0281E088
:1021900080934D028FEF80934C0210924B0210936C
:1021A0004A0226E532E0AAE2B2E0F9018E2F821B54
:1021B000811708F491C01092290280912902DD0F45
:1021C000D82BD093290280912802813009F087C052
:1021D000109228020E94C3036B017C0180912902A6
:1021E0008093BB008091500290915102A0915202C5
:1021F000B0915302892B8A2B8B2BA1F00E94C30331
:1022000000915002109151022091520230915302DC
:102210006C197D098E099F090617170728073907CA
:1022200008F441C08091BC0083FDD8CF85EC809339
:10223000BC000E94C3036B017C0180914E0282307E
:1022400009F44FC080914C028F3F91F180914C0274
:10225000C2E0803269F180914C02C4E0803341F5E4
:10226000C3E026C08091500290915102A091520289
:10227000B0915302892B8A2B8B2B09F481CF0E94BA
:10228000C3038090500290905102A0905202B090EF
:1022900053026C197D098E099F0986169706A806B8
:1022A000B90608F06DCF80914F020E948710C5E0FB
:1022B0001092550210927702109254028C2FDF91E7
:1022C000CF911F910F91FF90EF90DF90CF90BF9033
:1022D000AF909F908F90089581918D9367CF85EEF9
:1022E000A6CF8091500290915102A0915202B091DC
:1022F0005302892B8A2B8B2B09F49FCF0E94C30397
:1023000000915002109151022091520230915302DB
:102310006C197D098E099F090617170728073907C9
:1023200008F08BCFC0CF08950895E091BE01809151
:10233000BD01E81730F4F0E0E154FE4F808190E0F9
:1023400008958FEF9FEF08959091BE018091BD0198
:102350002FEF3FEF981748F4E92FF0E0E154FE4FDC
:10236000208130E09F5F9093BE01C9010895CF9214
:10237000DF92EF92FF920F931F93CF93DF937C0135
:10238000CB018A0120915402222389F0EB016B01D9
:10239000C40ED51ECC15DD0569F06991D701ED910C
:1023A000FC910190F081E02DC7010995F3CF642FD6
:1023B0000E944210C801DF91CF911F910F91FF90B1
:1023C000EF90DF90CF900895CF93DF930F92CDB72A
:1023D000DEB76983209154022223F9F0209177021D
:1023E000203258F021E030E0FC013383228390E07A
:1023F00080E00F90DF91CF91089580915502E82FF2
:10240000F0E0EA5AFD4F998190838F5F80935502E7
:102410008093770281E090E0ECCF61E0CE010196FD
:102420000E944210F7CF682F85E193E00C94E411ED
:1024300090E080E0089585ED8093BC00809150028B
:1024400090915102A0915202B09153020796A11DA2
:10245000B11D23E0B695A795979587952A95D1F755
:102460002091BC0024FD03C010924E0208954091BB
:102470005002509151026091520270915302452BCB
:10248000462B472B69F30097A105B10541F02AE2DD
:102490002A95F1F700C00197A109B109E1CF809118
:1024A0004F020C948710CF92DF92EF92FF920F931E
:1024B0001F93CF93DF93D62F91E09093540292E530
:1024C000909376021092550210927702682F85E160
:1024D00093E00E94E4110E94A8108FE99FE0019709
:1024E000F1F700C000000E94C3036B017C01C091A2
:1024F0004E02C11149C081E080934E0280934D028B
:102500009FEF90934C0210924B029D0F90934A02C2
:102510008093290280912902846A80932902809104
:102520002802813009F093C0109228020E94C30350
:102530006B017C01809129028093BB008091500245
:1025400090915102A0915202B0915302892B8A2B93
:102550008B2B09F45AC00E94C303009150021091C2
:10256000510220915202309153026C197D098E095B
:102570009F09061717072807390708F046C08091FA
:102580004F020E94871026C0809150029091510204
:10259000A0915202B0915302892B8A2B8B2B09F404
:1025A000A6CF0E94C30300915002109151022091C6
:1025B0005202309153026C197D098E099F0906174A
:1025C00017072807390708F092CF80914F020E9421
:1025D0008710C0E01092BE01C093BD0188E0E82ED4
:1025E00082E0F82EDF5F10E08091BE01C81709F489
:1025F00050C01D1709F44DC085E193E00E94A4115D
:102600001F5FF70181937F01EFCF8091BC0083FDB5
:1026100091CF85EC8093BC000E94C3036B017C01C9
:1026200080914E028130A9F080914B02CD2F8D1701
:1026300010F4C0914B022AE232E0AFEBB1E0F901B5
:102640008E2F821B8C1730F681918D93F9CF85EEFA
:10265000E1CF8091500290915102A0915202B0912D
:102660005302892B8A2B8B2BD9F20E94C303009132
:1026700050021091510220915202309153026C1974
:102680007D098E099F09061717072807390740F6A5
:1026900076CF812FDF91CF911F910F91FF90EF9017
:1026A000DF90CF900895CF92DF92EF92FF920F9339
:1026B0001F93CF93DF93EC016A017B01C114D10416
:1026C000E104F10431F4C12C22E1D22E2AE7E22EFA
:1026D000F12C8FA987FD07C061E00E94920361E0A1
:1026E0008FA90E94460361E088AD0E94920361E0D9
:1026F00088AD0E9446038DA9811195C040E052E14A
:102700006AE770E0C416D506E606F70640F476954B
:102710006795579547958F5F8630A1F787E0982F8B
:10272000906A969599A3809581708AA31BA21CA29A
:102730001DA21EA261E08AE00E94460361E08AE0D9
:102740000E9492038CB580618CBD8CB580648CBD79
:1027500061E08DE00E94920361E08BE00E949203B1
:102760008EA987FD2AC061E00E94920361E08EA9D4
:102770000E9446032FEF81EE94E02150804090406C
:10278000E1F700C0000060E08EA90E944603EFEF71
:10279000F1EE24E0E150F0402040E1F700C00000FD
:1027A00061E08EA90E9446038FEF93ECE9E081502F
:1027B0009040E040E1F700C000008EA987FF10C004
:1027C00020E050E040E061E0CE010E94DC0EFFEF2F
:1027D00022E587E0F15020408040E1F700C0000092
:1027E00008E610E0C8010196F8016491662309F437
:1027F00064C00E5F1F4FFC01F490EF2CE894E7F8E3
:102800002E2DA801CE010E94DC0E0E0D111DF7FE2B
:10281000E9CFFFEF22E587E0F15020408040E1F76B
:1028200000C00000DFCF03E116E0F12C8130A9F4F5
:1028300061E08AA50E94920360E08AA50E94460397
:1028400061E08CA50E94920360E08CA50E94460383
:102850008BA587FD85CF60E081CFF8018491E82FBB
:10286000F0E0EE0FFF1FE75FF94F859194912F8DF8
:1028700038A12817390741F461E08F2D0E94920397
:1028800060E08F2D0E944603F3940F5F1F4FF4E129
:10289000FF12E3CF61E08EA50E94920361E08EA556
:1028A0000E9446038FA587FD5BCF61E00E949203E3
:1028B00061E08FA50E94460353CF80EF90E0998797
:1028C000888780E491E09B878A87DF91CF911F9171
:1028D0000F91FF90EF90DF90CF9008951F921FB659
:1028E0001F9211242F933F938F939F93AF93BF9386
:1028F0008091B5019091B601A091B701B091B80156
:102900003091B40123E0230F2D3750F50196A11D1E
:10291000B11D2093B4018093B5019093B601A093AB
:10292000B701B093B8018091B9019091BA01A0911B
:10293000BB01B091BC010196A11DB11D8093B901ED
:102940009093BA01A093BB01B093BC01BF91AF912A
:102950009F918F913F912F911F901FBE1F901895AF
:1029600026E8230F0296A11DB11DD3CF1F920F920F
:102970000FB60F9211242F933F934F935F936F9352
:102980007F938F939F93AF93BF93EF93FF9388E7CA
:1029900092E00E944E04FF91EF91BF91AF919F9101
:1029A0008F917F916F915F914F913F912F910F90F8
:1029B0000FBE0F901F9018952F932FB72F938F93C3
:1029C0009F93EF93FF93E0918802F09189028081B9
:1029D000E0918E02F0918F0282FD19C0908180916A
:1029E00091028F5F8F7320919202821741F0E091E4
:1029F0009102F0E0E858FD4F958F80939102FF918E
:102A0000EF919F918F912F912FBF2F9118958081DA
:102A1000F6CF1F920F920FB60F9211242F933F9370
:102A20004F935F936F937F938F939F93AF93BF93D6
:102A3000EF93FF938091B900887F803609F44AC0F4
:102A4000F0F5883209F4A7C018F5803109F49BC06D
:102A5000B8F4882309F4F9C0883009F494C0FF91D0
:102A6000EF91BF91AF919F918F917F916F915F9106
:102A70004F913F912F910F900FBE0F901F9018957F
:102A8000883109F488C0803251F780934C0214C019
:102A9000803409F49DC040F48033B9F38833F9F6EB
:102AA00080934C0285ECB0C0803509F485C0883530
:102AB00009F496C0883499F60E941B12D0CF883949
:102AC00009F48CC038F5883729F050F4883611F0B5
:102AD000803729F683E080934E021092B30157C0ED
:102AE000883809F47BC0803919F0803809F0B7CFF5
:102AF0008091B301803208F071C0E091B30181E0B0
:102B00008E0F8093B3018091BB00F0E0ED56FE4F35
:102B100080833DC0803B39F0E0F4803A09F479C00D
:102B2000883A09F09CCF84E080934E021092900185
:102B300010928F01E0918D01F0918E0109958091A5
:102B40008F0181110FC081E080938F0110926D0180
:102B500009C0803C09F4A6CF883C09F4A3CF883B88
:102B600009F07DCFE091900181E08E0F809390017C
:102B7000F0E0E359FE4F80818093BB00909190017B
:102B800080918F0129C0809129028093BB0085EC40
:102B90008093BC0064CF90914B0280914A029817B9
:102BA00058F5E0914B0281E08E0F80934B02F0E0EC
:102BB000E65DFD4F8081E9CFE0914B0281E08E0F11
:102BC00080934B028091BB00F0E0E65DFD4F808377
:102BD00090914B0280914A029817C8F285E8D8CFAD
:102BE000E0914B0281E08E0F80934B028091BB00FD
:102BF000F0E0E65DFD4F808380914D0281115CCF56
:102C000081E08093280284EA8093BC0010924E02F7
:102C100026CF85EC8093BC0010924E028091B301C8
:102C2000803230F4E091B301F0E0ED56FE4F1082B7
:102C30006091B30170E0E0919101F091920183E91C
:102C400091E009951092B3010ACF10924C0234CF53
:102C50008F938FB78F9384B5805884BD8F918FBF2A
:102C60008F9118951895E8E7F2E01382128288EEAA
:102C700093E0A0E0B0E084839583A683B7832CE142
:102C800031E03183208325EC30E03587248724EC44
:102C900030E03787268720EC30E0318B208B21EC29
:102CA00030E0338B228B22EC30E0358B248B26EC0A
:102CB00030E0378B268B118E128E138E148EE5E149
:102CC000F3E01382128284839583A683B7838EE216
:102CD00091E091838083A2E2B3E013961C921E924E
:102CE000129720EF30E015963C932E93149780E4D2
:102CF00091E017969C938E93169719963C932E937A
:102D000018971B969C938E931A9756961C925697DB
:102D10001D961C921E921C971F961C921E921E9727
:102D200081E055968C93559754968C9354972FEF3A
:102D30003FEF53963C932E93529751963C932E938C
:102D4000509757968C93579758961C9258975A9627
:102D50001C921E925997D5961C92D5978FEFD696B6
:102D60008C93D6978AE0D7968C93D79789E0D8969C
:102D70008C93D897DA961C921E92D997DC961C9267
:102D80001E92DB97DD961C92DD97DE961C92DE97F5
:102D90001092610310926203109263031092640315
:102DA00081E293E090969C938E935F97ECE1F6E03E
:102DB000E491F0E0EE0FFF1FE75FF94F85919491EA
:102DC0005E969C938E935D97EEEFF5E08491D3969B
:102DD0008C93D397EDE1F6E0E491F0E0EE0FFF1F66
:102DE000E75FF94F259134915C963C932E935B9766
:102DF000EFEFF5E0E491D196EC93D197E095D29680
:102E0000EC93D297E82FE095D496EC93D49780E496
:102E100091E08D939C930895E0918802F09189024E
:102E200082E08083E0918402F09185021082E0913B
:102E30008602F09187028FEC808310929002E091DD
:102E40008C02F0918D0286E08083E0918A02F091FD
:102E50008B02808180618083E0918A02F0918B02F5
:102E6000808188608083E0918A02F0918B0280816A
:102E700080688083E0918A02F0918B0280818F7D4F
:102E8000808384B5836084BD85B5886085BD85B544
:102E9000826085BD84E387BD569A8091B1008260CF
:102EA0008093B10084E68093B300809170008260CB
:102EB0008093700078941092BE011092BD01109220
:102EC0005502109277020E94691083E991E1909374
:102ED0008E0180938D0184E991E19093920180931A
:102EE000910140E050E0BA0182E293E00E94531366
:102EF00070E060E082E293E00E94B808C1E0C09315
:102F0000540282E580937602109255021092770265
:102F100080EF90E00E94131285E590E00E9413126A
:102F20000E94A810C093540210925502109277028A
:102F30008BEF90E00E94131290E080E00E94131249
:102F40000E94A81064E08AEF0E945312843009F0B6
:102F500098C080E38093FD0188E78093FE0188E0BC
:102F600092E0CFEDD1E02CE032E0DC01ED91CD013B
:102F7000AE2FB0E074E0B595A7957A95E1F7A85F1C
:102F8000BE4F4C9148A3EF70F0E0E85FFE4F4081E8
:102F900049A322962817390741F71092070266E0E5
:102FA00080E00E945312863009F04DC080910802E3
:102FB0008093DF01809109028093E00180910D02EE
:102FC000282F30E040910A02B4E04B9FA001112469
:102FD000B901759567957595679563707727462B49
:102FE000572B5093E2014093E10140910B0294E092
:102FF000499FA001112464E0359527956A95E1F772
:1030000023703327242B352B3093E4012093E301E5
:1030100020910C02A4E02A9F90011124982F9295F0
:10302000969596959370292B3093E6012093E501B0
:10303000982F909591709093E7018695817091E01B
:1030400089278093E801F12CE12C06E110E026E1CC
:1030500030E047E750E06FE970E082E293E00E94E1
:10306000360CEE24EA94FE2C04E110E024E130E07A
:1030700048E750E060EA70E082E293E00E94360C9C
:103080008ECF8FEF9FEF08950E944C18332312F4D8
:103090008A1B9B0B0C945D18A29FB001B39FC001CB
:1030A000A39F700D811D1124911DB29F700D811D74
:1030B0001124911D08950E944C18B7FF0895821B9A
:1030C000930B0895EE0FFF1F0590F491E02D0994E6
:0430D000F894FFCFA2
:1030D400FFFFFFFFFFFFFFFF303132333435363758
:1030E4003839414243444546000000007004E80377
:1030F4001104BD0442042004340400000000E4115F
:10310400B71118128C093F03A41195110000000097
:103114001A07E80318124110280BCA0E980E2F0E36
:10312400AE0DEF0DBC093B0FB80FAE0FCC0C3D0D2F
:0C313400BB0CB8084B08EC075313460F07
:00000001FF
