:100000000C9415030C943D030C943D030C943D0398
:100010000C943D030C943D030C943D030C94FF148D
:100020000C943D030C943D030C943D030C943D0350
:100030000C943D030C943D030C9409150C943D0362
:100040000C9498130C943D030C943D030C943D03C5
:100050000C943D030C943D030C943D030C943D0320
:100060000C94E0130C943D03EF03038002CF0300D4
:10007000C130ED0464031281E803850078CB0539B3
:100080002C003402F70120EA020000C00123C10164
:1000900010C5023E28C701863601483701003A01E3
:1000A00055B1020018B603088227F20100260101AB
:1000B000E00F0F312B0C0E084EF1370710030E091D
:1000C00000E10F000E1403110731C148080F0C3175
:1000D000360F118029800000000000003E5B4F5B5E
:1000E0003E3E6B4F6B3E1C3E7C3E1C183C7E3C18DB
:1000F0001C577D571C1C5E7F5E1C00183C1800FFBF
:10010000E7C3E7FF0018241800FFE7DBE7FF3048EC
:100110003A060E2629792926407F050507407F05E6
:10012000253F5A3CE73C5A7F3E1C1C08081C1C3EDD
:100130007F14227F22145F5F005F5F06097F017FCB
:10014000006689956A606060606094A2FFA294086E
:10015000047E040810207E201008082A1C08081CB1
:100160002A08081E101010100C1E0C1E0C30383EF1
:100170003830060E3E0E06000000000000005F0052
:10018000000007000700147F147F14242A7F2A121E
:100190002313086462364956205000080703000004
:1001A0001C2241000041221C002A1C7F1C2A080836
:1001B0003E08080080703000080808080800006049
:1001C000600020100804023E5149453E00427F4035
:1001D0000072494949462141494D331814127F1094
:1001E00027454545393C4A494931412111090736DE
:1001F00049494936464949291E000014000000407B
:100200003400000008142241141414141400412274
:10021000140802015909063E415D594E7C12111223
:100220007C7F494949363E414141227F4141413E1F
:100230007F494949417F090909013E414151737F85
:100240000808087F00417F41002040413F017F08AE
:100250001422417F404040407F021C027F7F0408FF
:10026000107F3E4141413E7F090909063E4151212F
:100270005E7F09192946264949493203017F010356
:100280003F4040403F1F2040201F3F4038403F63D9
:100290001408146303047804036159494D43007F33
:1002A0004141410204081020004141417F04020104
:1002B00002044040404040000307080020545478A6
:1002C000407F284444383844444428384444287FF4
:1002D000385454541800087E090218A4A49C787F4E
:1002E0000804047800447D40002040403D007F1019
:1002F00028440000417F40007C047804787C080496
:1003000004783844444438FC182424181824241849
:10031000FC7C08040408485454542404043F442436
:100320003C4040207C1C2040201C3C4030403C4451
:10033000281028444C9090907C4464544C4400080D
:10034000364100000077000000413608000201023B
:1003500004023C2623263C1EA1A161123A40402003
:100360007A3854545559215555794122545478427C
:10037000215554784020545579400C1E5272123940
:1003800055555559395454545939555454580000F9
:10039000457C410002457D420001457C407D1211B3
:1003A000127DF0282528F07C545545002054547CBB
:1003B000547C0A097F4932494949323A4444443A13
:1003C000324A4848303A4141217A3A424020780046
:1003D0009DA0A07D3D4242423D3D4040403D3C24E9
:1003E000FF2424487E4943662B2FFC2F2BFF09292D
:1003F000F620C0887E090320545479410000447DD2
:10040000413048484A32384040227A007A0A0A721B
:100410007D0D19317D2629292F28262929292630C5
:10042000484D4020380808080808080808382F10E8
:10043000C8ACBA2F102834FA00007B000008142A38
:10044000142222142A14085500550055AA55AA55FD
:10045000AAFF55FF55FF000000FF00101010FF001D
:10046000141414FF001010FF00FF1010F010F0140F
:100470001414FC001414F700FF0000FF00FF141414
:10048000F404FC141417101F10101F101F14141460
:100490001F00101010F0000000001F101010101F9F
:1004A00010101010F010000000FF101010101010AD
:1004B000101010FF10000000FF140000FF00FF00EC
:1004C000001F10170000FC04F41414171017141464
:1004D000F404F40000FF00F714141414141414F7B7
:1004E00000F7141414171410101F101F141414F410
:1004F000141010F010F000001F101F0000001F1457
:10050000000000FC140000F010F01010FF10FF14A9
:100510001414FF141010101F00000000F010FFFF53
:10052000FFFFFFF0F0F0F0F0FFFFFF000000000021
:10053000FFFF0F0F0F0F0F3844443844FC4A4A4A5C
:10054000347E02020606027E027E02635549416342
:100550003844443C04407E201E2006027E0202995C
:10056000A5E7A5991C2A492A1C4C7201724C304AF5
:100570004D4D303048784830BC625A463D3E49497E
:1005800049007E0101017E2A2A2A2A2A44445F4426
:100590004440514A444040444A51400000FF010356
:1005A000E080FF000008086B6B0836123624360620
:1005B0000F090F060000181800000010100030404E
:1005C000FF0101001F01011E00191D1712003C3C14
:1005D0003C3C000000000000000000240027002A2E
:1005E00000000000080002010000030407000000F2
:1005F00000000000000102040810204080010204F5
:100600000810200102040810200000000025002826
:10061000002B000404040404040404020202020285
:1006200002030303030303000A1511241FBECFEFC7
:10063000D8E0DEBFCDBF11E0A0E0B1E0E6EBFDE227
:1006400002C005900D92AA35B107D9F722E0AAE5BC
:10065000B1E001C01D92A63BB207E1F713E0C5E18E
:10066000D3E004C02197FE010E94D316C431D10704
:10067000C9F70E94BB150C94D9160C940000809108
:10068000AB019091AC01891B990B089590E0FC019E
:10069000EF51FA4F2491FC01EB50FA4F3491FC01D9
:1006A000ED5EF94FE491EE23C9F0222339F02330B7
:1006B00001F1A8F4213019F1223029F1F0E0EE0F18
:1006C000FF1FE75FF94FA591B4918FB7F894EC91B4
:1006D000611126C030953E233C938FBF089527308B
:1006E000A9F02830C9F0243049F7809180008F7D2F
:1006F00003C0809180008F7780938000DFCF84B526
:100700008F7784BDDBCF84B58F7DFBCF8091B00028
:100710008F778093B000D2CF8091B0008F7DF9CFDA
:100720003E2BDACFCF93DF9390E0FC01EB50FA4FF2
:1007300024918D5E994FFC0184918823D1F090E043
:10074000880F991FFC01E952FA4FA591B491FC0161
:10075000E75FF94FC591D49161110EC09FB7F8942E
:100760008C91E22FE0958E238C932881E223E883FD
:100770009FBFDF91CF9108958FB7F894EC91E22B52
:10078000EC938FBFF6CF3FB7F8948091A70190917B
:10079000A801A091A901B091AA0126B5A89B05C006
:1007A0002F3F19F00196A11DB11D3FBFBA2FA92FF0
:1007B000982F8827BC01CD01620F711D811D911DED
:1007C00042E0660F771F881F991F4A95D1F7089559
:1007D000CF92DF92EF92FF920F931F93CF93DF930D
:1007E0007C016A0110E000E00C151D0581F0EB01B1
:1007F000D701ED91FC910190F081E02D6991C70145
:100800000995892B21F00F5F1F4FBE01EDCFC80165
:10081000DF91CF911F910F91FF90EF90DF90CF90DC
:1008200008950895FC016370668B8481958126810B
:100830003781623021F0633039F0613029F09187DF
:10084000808733872287089531872087938782871F
:1008500008952F923F924F925F926F927F928F9264
:100860009F92AF92BF92CF92DF92EF92FF920F933F
:100870001F93CF93DF93CDB7DEB76A970FB6F89487
:10088000DEBF0FBECDBF9A8F898F7A8369834A01FD
:10089000D22E18870F833701BC2CDC0159962D917D
:1008A0003C915A972115310509F015C118968D9183
:1008B0009C911997681779070CF0D7C11A968D91FA
:1008C0009C91481759070CF0D0C14C2C512CB6E024
:1008D000CB9E600D711D11247C876B871616170641
:1008E0000CF0C3C1EA2DF0E0FA87E98793E0EE0F40
:1008F000FF1F9A95E1F7F88BEF87CF01840F951FC3
:10090000181619060CF0B1C1A98DBA8D58968C91A4
:10091000811104C0BFEABD1508F4D394A98DBA8D26
:10092000ED91FC9111970284F385E02DCD0109959D
:10093000B5E0DB9EC0011124E981FA81FC83EB83E1
:10094000312C212C9C0129523F4F388F2F8B4A2D5F
:1009500050E05E8B4D8BEF89F88DE20DF31D4491D5
:100960009E828D82D12CC12C69817A81620D731D8A
:100970007A8B698B842F90E09C8B8B8BE98DFA8D21
:10098000A081B18140FF82C0F1E0BF126FC0AF1201
:100990006DC01C96ED91FC912F813885A4014C0D02
:1009A0005D1D69897A89898D9A8D0995EB89FC8904
:1009B000F595E7954E2F5FEFC51AD50A6D817E81BB
:1009C0008D899E89680F791F7E836D8398E0C91693
:1009D000D10481F6AFEF2A1A3A0AEB81FC81E40DCB
:1009E000F51DFC83EB83F5E02F16310409F0B3CF3E
:1009F0002F81388526153705B9F0A98DBA8DED916F
:100A0000FC91B1E0BB1257C0AB1255C069817A812D
:100A10006B5F7F4F0088F189E02D830128E030E093
:100A2000A401898D9A8D0995A98DBA8DED91FC91BE
:100A300011970688F789E02DCD016A960FB6F894D4
:100A4000DEBF0FBECDBFDF91CF911F910F91FF9001
:100A5000EF90DF90CF90BF90AF909F908F907F905E
:100A60006F905F904F903F902F9009941E96ED915C
:100A7000FC91EF80F88409851A8592014D815E8191
:100A80006B817C81898D9A8D099590CF2F813885D6
:100A90002615370509F48ACF31E0B31207C0A31237
:100AA00005C01C96ED91FC91930178CF1E96ED91B7
:100AB000FC917301E0CF6B857C8564197509068410
:100AC000F785E02D73010F8518899201A401898DA6
:100AD0009A8D0995A9CFF901349694913297459151
:100AE0005491D91AB7E0DB9E400D511D1124F90134
:100AF000259134913C8B2B8BFA0125903490FA018F
:100B00003296749031963491398B32966490319646
:100B1000449041E04C1518F04A1508F07FC0662D4E
:100B2000062C000C770B7C836B83842D042C000C2B
:100B3000990B9E838D83A98DBA8DED91FC911197B0
:100B40000284F385E02DCD010995512CD12CC12CC7
:100B5000EA2DF0E0FA87E9872B2D30E03C872B87E0
:100B6000A401440D511D47FC5A95588F4F8B698144
:100B70007A81660D711D67FC7A957E876D8779890C
:100B8000C71608F051CF2C2D30E04D815E81420F09
:100B9000531FA985BA854A9FC0014B9F900D5A9F4C
:100BA000900D1124FC01E80DF91DF88BEF87852DC0
:100BB000612C4F89588D420F531F5E8B4D8B6714EC
:100BC00008F050C044244394480E877041F4C1019A
:100BD0000196EB89FC89E20DF31DD4901C01D7FE30
:100BE00019C0A98DBA8DED91FC91662D70E0B1E030
:100BF000BB1219C0AB1217C02D853E85620F731F43
:100C00000484F585E02D2F8138854D895E89898D95
:100C10009A8D0995DD0C6394842DD1CF1E821D829F
:100C20001C821B8288CF4B815C81640F751FAB8552
:100C3000BC856A9FC0016B9F900D7A9F900D112417
:100C400069817A81680F791F0684F785E02DEF802E
:100C5000F88409851A859D014F855889898D9A8D5B
:100C60000995D8CF570CC3948ACF6A960FB6F894DB
:100C7000DEBF0FBECDBFDF91CF911F910F91FF90CF
:100C8000EF90DF90CF90BF90AF909F908F907F902C
:100C90006F905F904F903F902F9008958F929F920A
:100CA000AF92CF92EF92FF920F931F93CF93DF9368
:100CB000EC01262F898D9A8D009709F051C06A307A
:100CC000D1F41D861C868D8948E0849F90011124F3
:100CD0008E859F85820F931F9F878E8781E090E08E
:100CE000DF91CF911F910F91FF90EF90CF90AF9038
:100CF0009F908F9008956D3089F3CC88AD888F894F
:100D00008823C1F08C859D8536E0C39E800D911DA2
:100D10001124488559854817590764F44E855F8525
:100D20001D861C8638E0A39EC0011124840F951FE8
:100D30009F878E87EA88FB88088919894E855F8599
:100D40006C857D85CE010E9429042C898C859D852A
:100D500046E0249F800D911D11249D878C87BECF76
:100D60006A3069F41D861C86FC013896E4912D8951
:100D70008E859F85E29F800D911D1124ADCF6D3032
:100D800009F4ACCFFC0134963491631708F4A6CF74
:100D90003296E491E61708F4A1CFFC0132968590D3
:100DA0009490462F431B342F47E0349F800C911CB6
:100DB0001124F401329634913196E4913323A9F150
:100DC000EE2399F1CC88F4013596E491AD884F89F2
:100DD000442301F10E2E000CFF0BE30FF11DCE9EFC
:100DE000A001CF9E500D11246C857D85460F571FA5
:100DF00068857985641775076CF44E855F851D8657
:100E00001C86FC013896E491AE9E400D511D1124C4
:100E10005F874E87EA88FB88088919894E855F8538
:100E20006C857D85CE010E942904F4013496E491FD
:100E30002C898C859D85E29F800D911D11248DCF7D
:100E40006F927F928F929F92AF92BF92CF92DF92DA
:100E5000EF92FF920F931F93CF93DF93EC016B01FF
:100E60005A0139014801E881F9810284F385E02DB6
:100E70000995E881F9810288F389E02D87019301C2
:100E8000A501B601CE010995A501480D591D415096
:100E90005109E881F9810288F389E02D9301B601B7
:100EA000CE010995E881F9810088F189E02D94014E
:100EB000A501B601CE010995C60CD71CB60161503B
:100EC0007109E881F9810088F189E02D9401A5017B
:100ED000CE010995E881F9810688F789E02DCE01D8
:100EE000DF91CF911F910F91FF90EF90DF90CF9006
:100EF000BF90AF909F908F907F906F9009948F924A
:100F00009F92AF92BF92CF92DF92EF92FF920F9398
:100F10001F93CF93DF934C016B015A01E901DC0170
:100F2000ED91FC916217730709F50417150724F476
:100F30008B2D5801042F182F0A191B0998012F5FB8
:100F40003F4F048CF58DE02D8701A501B601C4014A
:100F50000995DF91CF911F910F91FF90EF90DF9056
:100F6000CF90BF90AF909F908F90089540175107FA
:100F700081F42617370724F48D2D6901C62FD82F49
:100F80009E012C193D092F5F3F4F068CF78DE02DF8
:100F9000DBCF0284F385E02D0995D401ED91FC911E
:100FA0000488F589E02D9E01A501B601C4010995CB
:100FB000D401ED91FC910688F789E02DC401DF9101
:100FC000CF911F910F91FF90EF90DF90CF90BF9046
:100FD000AF909F908F900994EF92FF920F931F9381
:100FE000DC011A960D911C911B9718962D913C913E
:100FF0001997ED91FC9100A0F1A1E02D7B0150E04B
:1010000040E070E060E009951F910F91FF90EF9034
:1010100008954F925F926F927F928F929F92AF92BC
:10102000BF92CF92DF92EF92FF920F931F93CF93D5
:10103000DF936C012B015A0139014801DC01ED916C
:10104000FC910284F385E02D0995E201640C751C86
:10105000D601ED91FC91C615D7055CF40088F189A5
:10106000E02D87019401A501BE01C60109952196D5
:10107000EFCF0688F789E02DC601DF91CF911F9150
:101080000F91FF90EF90DF90CF90BF90AF909F9027
:101090008F907F906F905F904F9009948F929F9266
:1010A000AF92BF92CF92DF92EF92FF920F931F9376
:1010B000CF93DF93EC015B014A016901E881F9817B
:1010C0000284F385E02D099595012C0D3D1D2150DD
:1010D0003109E881F9810488F589E02D78018401DE
:1010E000A401B501CE010995E881F9810688F78947
:1010F000E02DCE01DF91CF911F910F91FF90EF90E6
:10110000DF90CF90BF90AF909F908F9009948F9277
:101110009F92AF92BF92CF92DF92EF92FF920F9386
:101120001F93CF93DF93EC015B014A0169017801C2
:10113000E881F9810284F385E02D0995C80CD91C5A
:10114000860101501109E881F9810488F589E02DB3
:101150009501A401B501CE010995E881F9810688C0
:10116000F789E02DCE01DF91CF911F910F91FF9074
:10117000EF90DF90CF90BF90AF909F908F900994A9
:101180000895EF92FF920F931F93DC01ED91FC9174
:1011900000A0F1A1E02D09951F910F91FF90EF9014
:1011A00008950F931F93DC01ED91FC91068CF78D50
:1011B000E02D09951F910F9108950F931F93DC0166
:1011C000ED91FC91048CF58DE02D09951F910F9107
:1011D0000895DC01ED91FC910084F185E02D0994E6
:1011E0002F923F924F925F926F927F928F929F9237
:1011F000AF92BF92CF92DF92EF92FF920F931F9325
:10120000CF93DF9300D000D000D0CDB7DEB72C0154
:101210007E836D836A015901C801FC82EB8248011B
:10122000841A950A97FE03C0919481949108350120
:101230002D813E81621A730A77FE03C07194619416
:101240007108681479045CF43A2D2B2D5C01832F0E
:10125000922F3D812E81DE82CD82C32ED22EAD8192
:10126000BE81AA16BB065CF43C2D2D2D6C01832F8C
:10127000922F3D812E81BE82AD82A32EB22E85019A
:101280002D813E81021B130B1C012C183D0837FEDB
:1012900003C0319421943108780117FF03C03FEF58
:1012A000E31AF30AF594E794C816D90664F18FEFB0
:1012B0009FEF9A8389832D813E81A216B30644F164
:1012C000D201ED91FC910484F585E02D2B813C81C8
:1012D0004D815E81B601681479041CF0A6016D8110
:1012E0007E81C2010995E218F308F7FE06C0298144
:1012F0003A81C20ED31EE00EF11E8D819E810196B1
:101300009E838D83D8CFA1E0B0E0BA83A983D3CFE9
:1013100026960FB6F894DEBF0FBECDBFDF91CF91FA
:101320001F910F91FF90EF90DF90CF90BF90AF9003
:101330009F908F907F906F905F904F903F902F90F5
:101340000895FC01A5A1B6A18C9192A589238C9347
:10135000A5A1B6A18C9191A5892B8C9308950F938B
:101360001F93CF93DF93EC018B018DA981110DC0E9
:101370001EBD0DB407FEFDCF0EBD0DB407FEFDCFA3
:10138000DF91CF911F910F9108958130E9F480E1B1
:10139000E9A1FAA1908117FF14C02DA1922B90838F
:1013A000EBA1FCA190812FA1922B9083EBA1FCA13A
:1013B000908128A592239083000F111F815041F73F
:1013C000DFCF2EA19223EBCFEF8DF8A11083CE01BA
:1013D0000E94A109EF8DF8A10083CE01DF91CF918A
:1013E0001F910F910C94A109FC0185A9811105C0E1
:1013F0006EBD0DB407FEFDCF08958130E1F488E0A5
:10140000A1A1B2A19C9167FF13C025A1922B9C932F
:10141000A3A1B4A19C9127A1922B9C93660FA3A199
:10142000B4A19C9120A592239C93815049F70895E3
:1014300026A19223ECCFA78DB0A16C93CF010C9481
:10144000A109CF93DF93EC01ED8DFE8D80819CA9E6
:1014500089238083CE010E94F409ED8DFE8D808169
:101460009BA9892B8083DF91CF910895FC0185A9E9
:10147000811104C091A182A19CBD8DBD08951F93CF
:10148000CF93DF93EC01162FE881F9810284F38575
:10149000E02D0995112371F06DADCE010E94210A56
:1014A000E881F9810688F789E02DCE01DF91CF919F
:1014B0001F9109946EADF1CFAF92BF92CF92DF92A0
:1014C000EF92FF920F931F93CF93DF93EC017B0179
:1014D0006A01590177FD35C08885998568177907B4
:1014E00084F557FD2EC08A859B85481759074CF512
:1014F000E881F9810284F385E02DCE010995E88128
:10150000F98102A4F3A5E02D01E010E021E030E034
:10151000A601B701CE010995B501CE010E94AF0920
:10152000E881F9810688F789E02DCE01DF91CF911E
:101530001F910F91FF90EF90DF90CF90BF90AF90F1
:101540000994DF91CF911F910F91FF90EF90DF9061
:10155000CF90BF90AF9008958F929F92AF92BF921D
:10156000CF92DF92EF92FF920F931F93CF93DF936F
:10157000EC0149015701E881F98102A4F3A5E02DAE
:1015800009959401D8010E94B5166B017C01C11424
:10159000D104E104F10409F490C08DA9811115C0B2
:1015A00081E0C81AD108E108F1088FEFC816D80603
:1015B000E806F80609F481C0BEBC0DB407FEFDCFF5
:1015C000AEBC0DB407FEFDCFEBCF813009F045C0B6
:1015D00081E0C81AD108E108F1088FEFC816D806D3
:1015E000E806F80609F469C09B2D88E0E9A1FAA194
:1015F000208197FF2CC03DA1232B2083EBA1FCA1D0
:1016000020813FA1232B2083EBA1FCA1208138A5C1
:1016100023232083990F815049F79A2D88E0E9A16F
:10162000FAA1208197FF16C03DA1232B2083EBA1B7
:10163000FCA120813FA1232B2083EBA1FCA12081D1
:1016400038A523232083990F815049F7C1CF3EA1AC
:101650002323D3CF3EA12323E9CFBA1016C0CC0C4D
:10166000DD1CEE1CFF1CEF8DF8A1B08281E0C81AD2
:10167000D108E108F1088FEFC816D806E806F80689
:10168000E1F0CE010E94A109F1CF81E0C81AD10892
:10169000E108F1088FEFC816D806E806F80669F0E9
:1016A000EF8DF8A1B082CE010E94A109EF8DF8A1C3
:1016B000A082CE010E94A109E8CFDF91CF911F91B6
:1016C0000F91FF90EF90DF90CF90BF90AF909F90E1
:1016D0008F9008958F929F92AF92BF92CF92DF9298
:1016E000EF92FF920F931F93CF93DF935C014B0117
:1016F0006A01E90177FD52C0DC0118968D919C9139
:10170000681779070CF04AC0209709F447C037FFE3
:1017100007C0C9010196C80ED91ED195C195D1093E
:10172000F50182859385C816D906C4F5A6014C0F2C
:101730005D1F9A012150310937FD30C0D7FE03C02B
:10174000EA01D12CC12C281739071CF0EC01CC1967
:10175000DD09D501ED91FC910284F385E02DC501F1
:10176000099578018E0121E030E0A601B401C501A0
:101770000E94AC0AD501ED91FC910688F789E02D15
:10178000C501DF91CF911F910F91FF90EF90DF90F6
:10179000CF90BF90AF909F908F900994DF91CF91A1
:1017A0001F910F91FF90EF90DF90CF90BF90AF907F
:1017B0009F908F9008958F929F92AF92BF92CF92F9
:1017C000DF92EF92FF920F931F93CF93DF935C0111
:1017D0006B014A01E90157FD52C0DC011A968D9157
:1017E0009C91481759070CF04AC0209709F447C04C
:1017F00037FF07C0C9010196C80ED91ED195C19502
:10180000D109F50180859185C816D906C4F5A601D0
:101810004C0F5D1F9A012150310937FD30C0D7FEB2
:1018200003C0EA01D12CC12C281739071CF0EC01A8
:10183000CC19DD09D501ED91FC910284F385E02DF1
:10184000C5010995780101E010E09E01A401B601EF
:10185000C5010E94AC0AD501ED91FC910688F7897B
:10186000E02DC501DF91CF911F910F91FF90EF9077
:10187000DF90CF90BF90AF909F908F900994DF91B1
:10188000CF911F910F91FF90EF90DF90CF90BF907D
:10189000AF909F908F9008958F929F92AF92BF923A
:1018A000CF92DF92EF92FF920F931F93CF93DF932C
:1018B0004C016B015A01E901209709F46CC0011534
:1018C000110509F468C037FF07C0C9010196C80EA9
:1018D000D91ED195C195D109F401A085B185CA164B
:1018E000DB060CF058C017FF07C0C8010196A80E10
:1018F000B91E119501951109F40182859385A816E9
:10190000B9060CF048C0F601EC0FFD1FAF014150C5
:10191000510957FD40C0B501600F711F9B01215057
:10192000310937FD38C0D7FE03C0EF01D12CC12CDF
:10193000B7FE03C08B01B12CA12C4A175B071CF02A
:10194000ED01CC19DD09281739071CF08C010A19A3
:101950001B09D401ED91FC910284F385E02DC401B3
:1019600009959E01A501B601C4010E94AC0AD401EB
:10197000ED91FC910688F789E02DC401DF91CF91AC
:101980001F910F91FF90EF90DF90CF90BF90AF909D
:101990009F908F900994DF91CF911F910F91FF90AD
:1019A000EF90DF90CF90BF90AF909F908F90089571
:1019B000EF92FF920F931F93CF93DF9377FD32C087
:1019C000DC011896ED91FC916E177F075CF52115EF
:1019D000310541F137FF07C0F90131964E0F5F1F06
:1019E000319521953109DC011A96ED91FC914E1744
:1019F0005F07C4F4EA01C20FD31FDE011197B7FDE0
:101A000011C057FF03C09E0150E040E0AE17BF0772
:101A10001CF09F01241B350B7801890121E030E087
:101A20000E94AC0ADF91CF911F910F91FF90EF9030
:101A30000895EF92FF920F931F93CF93DF9357FD7B
:101A400031C0DC011A96ED91FC914E175F0754F5F9
:101A50002115310539F137FF07C0F90131966E0FB5
:101A60007F1F319521953109DC011896ED91FC918C
:101A70006E177F07BCF4EB01C20FD31FDE01119775
:101A8000B7FD10C077FF03C09E0170E060E0AE17A5
:101A9000BF071CF09F01261B370B780101E010E007
:101AA0000E94AC0ADF91CF911F910F91FF90EF90B0
:101AB00008958F929F92AF92BF92CF92DF92EF9252
:101AC000FF920F931F93CF93DF93470121153105A9
:101AD00009F44BC00115110509F447C037FF07C0D1
:101AE000F90131966E0F7F1F319521953109DC0187
:101AF0001896AD90BC906A157B05BCF517FF07C022
:101B0000F80131964E0F5F1F119501951109DC0107
:101B10001A96ED91FC914E175F073CF56B01C20ED2
:101B2000D31EE6012197D7FD20C07A01E00EF11EF9
:101B3000D7011197B7FD19C077FF03C0960170E078
:101B400060E057FF03C0870150E040E0CA15DB05A5
:101B50001CF09501261B370BAE17BF071CF08F0139
:101B6000041B150B74010E94AC0ADF91CF911F91E9
:101B70000F91FF90EF90DF90CF90BF90AF909F902C
:101B80008F900895EF92FF920F931F93CF93DF935F
:101B9000EC01790177FD21C088859985681779075F
:101BA000E4F457FD1AC08A859B8548175907ACF4A1
:101BB000E881F98102A4F3A5E02D01E010E021E025
:101BC00030E0CE010995B701CE01DF91CF911F9191
:101BD0000F91FF90EF900C94AF09DF91CF911F917F
:101BE0000F91FF90EF900895CF93DF93EC010E9447
:101BF000360A8FA987FD06C0EB8DFC8D80819AA9DE
:101C000089238083DF91CF9108950895AF92BF9289
:101C1000CF92DF92EF92FF920F931F93CF93DF93B8
:101C2000EC01E62E8A01A22E0E94360A8FA987FDBA
:101C300006C0EB8DFC8D80819AA989238083ED8D70
:101C4000FE8D80819CA9892380836E2DCE010E9408
:101C5000F409ED8DFE8D80819BA9892B8083D12C89
:101C6000C12CB12CCA14DB04E4F48DA978018230B4
:101C700079F488A9882361F0F801619171917F015D
:101C8000CE010E94AF09FFEFCF1ADF0A8701EACF2A
:101C9000FFEFEF1AFF0AF8016491CE010E94F409E8
:101CA000F2CF8FA987FD06C0EB8DFC8D808199A9AD
:101CB000892B8083DF91CF911F910F91FF90EF903F
:101CC000DF90CF90BF90AF900895FC0187A987FD6A
:101CD00006C0A38DB48D9C9181A9982B9C930895E7
:101CE000AF92BF92CF92DF92EF92FF920F931F932A
:101CF000CF93DF93EC015B016A0121503109790137
:101D0000E60EF71E01501109040F151F8091060100
:101D1000909107018617970739F4809104019091FB
:101D200005018E159F05A1F06AE2CE010E94210AED
:101D3000B501CE010E94AF09B701CE010E94AF09E3
:101D4000B0920701A0920601F0920501E092040111
:101D500080910201909103018C159D0539F48091C9
:101D600000019091010180179107A1F06BE2CE0173
:101D70000E94210AB601CE010E94AF09B801CE012E
:101D80000E94AF09D0920301C09202011093010199
:101D9000009300016CE2CE01DF91CF911F910F9172
:101DA000FF90EF90DF90CF90BF90AF900C94210AFE
:101DB000611106C060E220E050E040E00C94060EA5
:101DC00061E2F9CF0F931F93CF93DF930F92CDB7BB
:101DD000DEB78C016370DC0156966C9356976230C7
:101DE00009F468C0633009F46AC0613009F456C070
:101DF00088E4898380EF90E019969C938E931897DE
:101E000080E491E01B969C938E931A97C8010E94E0
:101E1000360AD801D7968C91D79787FD09C05B9673
:101E2000ED91FC915C978081D2969C91892380836F
:101E3000D8015D96ED91FC915E978081D4969C913E
:101E40008923808366E3C8010E94F409D8015D9666
:101E5000ED91FC915E978081D3969C91D397892BCD
:101E60008083D5968C91823061F16981C8010E948E
:101E7000F409D801D7968C91D79787FD09C05B9656
:101E8000ED91FC915C978081D1969C91892B808308
:101E90000F90DF91CF911F910F91089588E2898370
:101EA00080E491E0F8019187808780EF90E093874C
:101EB0008287ACCF88E8898380EF90E09DCF88EE61
:101EC000EECFF80180A9882381F269817A81C80167
:101ED0000E94AF09CECF089520917D01260F3327B0
:101EE000331F21323105ECF420913C02FC0190E0DB
:101EF00080E0243069F082E00895A0917D01219175
:101F0000AC01455A5E4FA40FB52FB11D2C9301961D
:101F1000861798F380917D01680F60937D0180E0C2
:101F2000089581E0089510923C0281E080933B0285
:101F30001092160261E082E10E94460361E083E1B3
:101F40000E944603E9EBF0E080818E7F80838081F0
:101F50008D7F808388E48093B80085E48093BC0003
:101F60000895CF93DF9391E090935A018823B9F0BD
:101F7000C091B800D091BA008091BC008A7B809358
:101F8000BC0060E082E10E94460360E083E10E94C1
:101F900046030E94930FD093BA00C093B800DF911C
:101FA000CF9108958F929F92AF92BF92CF92DF927E
:101FB000EF92FF920F931F93CF93DF9310916502DF
:101FC000C1E0113208F09EC0D09164020E94C303A8
:101FD0006B017C01C0913C02C1116EC082E0809314
:101FE0003C0281E080933B028FEF80933A02109293
:101FF00039021093380224E432E0A8E1B2E0F9019A
:102000008E2F821B811708F491C0109217028091C5
:102010001702DD0FD82BD093170280911602813062
:1020200009F087C0109216020E94C3036B017C0165
:10203000809117028093BB0080913E0290913F02F5
:10204000A0914002B0914102892B8A2B8B2BA1F0E9
:102050000E94C30300913E0210913F022091400272
:10206000309141026C197D098E099F0906171707E7
:102070002807390708F441C08091BC0083FDD8CF00
:1020800085EC8093BC000E94C3036B017C018091AE
:102090003C02823009F44FC080913A028F3F91F1A7
:1020A00080913A02C2E0803269F180913A02C4E044
:1020B000803341F5C3E026C080913E0290913F02FB
:1020C000A0914002B0914102892B8A2B8B2B09F4FD
:1020D00081CF0E94C30380903E0290903F02A09067
:1020E0004002B09041026C197D098E099F09861645
:1020F0009706A806B90608F06DCF80913D020E94B0
:10210000B10FC5E010924302109265021092420294
:102110008C2FDF91CF911F910F91FF90EF90DF9067
:10212000CF90BF90AF909F908F90089581918D93A5
:1021300067CF85EEA6CF80913E0290913F02A0919D
:102140004002B0914102892B8A2B8B2B09F49FCF3F
:102150000E94C30300913E0210913F022091400271
:10216000309141026C197D098E099F0906171707E6
:102170002807390708F08BCFC0CF08950895E09164
:10218000AC018091AB01E81730F4F0E0E355FE4F6D
:10219000808190E008958FEF9FEF08959091AC01BA
:1021A0008091AB012FEF3FEF981748F4E92FF0E053
:1021B000E355FE4F208130E09F5F9093AC01C90151
:1021C0000895CF92DF92EF92FF920F931F93CF93D8
:1021D000DF937C01CB018A0120914202222389F006
:1021E000EB016B01C40ED51ECC15DD0569F06991BC
:1021F000D701ED91FC910190F081E02DC701099587
:10220000F3CF642F0E946C0FC801DF91CF911F9113
:102210000F91FF90EF90DF90CF900895CF93DF93D1
:102220000F92CDB7DEB76983209142022223F9F0E5
:1022300020916502203258F021E030E0FC01338328
:10224000228390E080E00F90DF91CF9108958091FC
:102250004302E82FF0E0EC5BFD4F998190838F5FA4
:10226000809343028093650281E090E0ECCF61E0CF
:10227000CE0101960E946C0FF7CF682F86E692E0A0
:102280000C940E1190E080E0089585ED8093BC00E1
:1022900080913E0290913F02A0914002B091410294
:1022A0000796A11DB11D23E0B695A7959795879533
:1022B0002A95D1F72091BC0024FD03C010923C0266
:1022C000089540913E0250913F026091400270910A
:1022D0004102452B462B472B69F30097A105B10519
:1022E00041F02AE22A95F1F700C00197A109B1094E
:1022F000E1CF80913D020C94B10FCF92DF92EF922B
:10230000FF920F931F93CF93DF93D62F91E090937B
:10231000420292E590936402109243021092650289
:10232000682F86E692E00E940E110E94D20F8FE97C
:102330009FE00197F1F700C000000E94C3036B010A
:102340007C01C0913C02C11149C081E080933C02F4
:1023500080933B029FEF90933A02109239029D0FB7
:10236000909338028093170280911702846A8093B9
:10237000170280911602813009F093C01092160264
:102380000E94C3036B017C01809117028093BB0004
:1023900080913E0290913F02A0914002B091410293
:1023A000892B8A2B8B2B09F45AC00E94C3030091FE
:1023B0003E0210913F0220914002309141026C197F
:1023C0007D098E099F09061717072807390708F0A6
:1023D00046C080913D020E94B10F26C080913E020E
:1023E00090913F02A0914002B0914102892B8A2B2B
:1023F0008B2B09F4A6CF0E94C30300913E021091DB
:102400003F0220914002309141026C197D098E09F2
:102410009F09061717072807390708F092CF809100
:102420003D020E94B10FC0E01092AC01C093AB011D
:1024300086EFE82E81E0F82EDF5F10E08091AC019E
:10244000C81709F450C01D1709F44DC086E692E084
:102450000E94CE101F5FF70181937F01EFCF809123
:10246000BC0083FD91CF85EC8093BC000E94C30328
:102470006B017C0180913C028130A9F0809139028E
:10248000CD2F8D1710F4C091390228E132E0ADEA6A
:10249000B1E0F9018E2F821B8C1730F681918D935C
:1024A000F9CF85EEE1CF80913E0290913F02A0915D
:1024B0004002B0914102892B8A2B8B2BD9F20E94CA
:1024C000C30300913E0210913F02209140023091DF
:1024D00041026C197D098E099F0906171707280705
:1024E000390740F676CF812FDF91CF911F910F9161
:1024F000FF90EF90DF90CF900895CF92DF92EF9210
:10250000FF920F931F93CF93DF93EC016A017B013E
:10251000C114D104E104F10431F4C12C22E1D22E22
:102520002AE7E22EF12C8FA987FD07C061E00E9407
:10253000920361E08FA90E94460361E088AD0E948A
:10254000920361E088AD0E9446038DA9811195C078
:1025500040E052E16AE770E0C416D506E606F706E9
:1025600040F476956795579547958F5F8630A1F72C
:1025700087E0982F906A969599A3809581708AA399
:102580001BA21CA21DA21EA261E08AE00E944603BB
:1025900061E08AE00E9492038CB580618CBD8CB5AD
:1025A00080648CBD61E08DE00E94920361E08BE06D
:1025B0000E9492038EA987FD2AC061E00E949203C7
:1025C00061E08EA90E9446032FEF81EE94E0215036
:1025D00080409040E1F700C0000060E08EA90E94BA
:1025E0004603EFEFF1EE24E0E150F0402040E1F748
:1025F00000C0000061E08EA90E9446038FEF93ECBB
:10260000E9E081509040E040E1F700C000008EA971
:1026100087FF10C020E050E040E061E0CE010E9462
:10262000060EFFEF22E587E0F15020408040E1F701
:1026300000C0000008E610E0C8010196F8016491AE
:10264000662309F464C00E5F1F4FFC01F490EF2C69
:10265000E894E7F82E2DA801CE010E94060E0E0D7B
:10266000111DF7FEE9CFFFEF22E587E0F150204092
:102670008040E1F700C00000DFCF03E116E0F12C5D
:102680008130A9F461E08AA50E94920360E08AA5E6
:102690000E94460361E08CA50E94920360E08CA535
:1026A0000E9446038BA587FD85CF60E081CFF801AE
:1026B0008491E82FF0E0EE0FFF1FE75FF94F85915F
:1026C00094912F8D38A12817390741F461E08F2D9F
:1026D0000E94920360E08F2D0E944603F3940F5FE7
:1026E0001F4FF4E1FF12E3CF61E08EA50E94920339
:1026F00061E08EA50E9446038FA587FD5BCF61E058
:102700000E94920361E08FA50E94460353CF80EFA1
:1027100090E09987888780E491E09B878A87DF91A2
:10272000CF911F910F91FF90EF90DF90CF90089580
:102730001F921FB61F9211242F933F938F939F9345
:10274000AF93BF938091A3019091A401A091A501A3
:10275000B091A6013091A20123E0230F2D3750F54F
:102760000196A11DB11D2093A2018093A301909316
:10277000A401A093A501B093A6018091A701909117
:10278000A801A091A901B091AA010196A11DB11DB6
:102790008093A7019093A801A093A901B093AA01E7
:1027A000BF91AF919F918F913F912F911F901FBE2D
:1027B0001F90189526E8230F0296A11DB11DD3CFB7
:1027C0001F920F920FB60F9211242F933F934F93A6
:1027D0005F936F937F938F939F93AF93BF93EF9389
:1027E000FF938091B900887F803609F44AC0F0F5E4
:1027F000883209F4A7C018F5803109F49BC0B8F4F9
:10280000882309F4F9C0883009F494C0FF91EF914E
:10281000BF91AF919F918F917F916F915F914F91F8
:102820003F912F910F900FBE0F901F9018958831F8
:1028300009F488C0803251F780933A0214C0803482
:1028400009F49DC040F48033B9F38833F9F68093DE
:102850003A0285ECB0C0803509F485C0883509F4AA
:1028600096C0883499F60E944511D0CF883909F472
:102870008CC038F5883729F050F4883611F080374D
:1028800029F683E080933C021092A10157C088385A
:1028900009F47BC0803919F0803809F0B7CF8091F6
:1028A000A101803208F071C0E091A10181E08E0F9A
:1028B0008093A1018091BB00F0E0EF57FE4F808331
:1028C0003DC0803B39F0E0F4803A09F479C0883AA1
:1028D00009F09CCF84E080933C0210927E0110921C
:1028E0007D01E0917B01F0917C01099580917D0152
:1028F00081110FC081E080937D0110925B0109C0BE
:10290000803C09F4A6CF883C09F4A3CF883B09F0AA
:102910007DCFE0917E0181E08E0F80937E01F0E01B
:10292000E55AFE4F80818093BB0090917E0180919B
:102930007D0129C0809117028093BB0085EC8093B4
:10294000BC0064CF9091390280913802981758F5F5
:10295000E091390281E08E0F80933902F0E0E85E69
:10296000FD4F8081E9CFE091390281E08E0F8093A5
:1029700039028091BB00F0E0E85EFD4F80839091CA
:102980003902809138029817C8F285E8D8CFE091D3
:10299000390281E08E0F809339028091BB00F0E014
:1029A000E85EFD4F808380913B0281115CCF81E026
:1029B0008093160284EA8093BC0010923C0226CFDA
:1029C00085EC8093BC0010923C028091A101803282
:1029D00030F4E091A101F0E0EF57FE4F10826091DA
:1029E000A10170E0E0917F01F091800181E891E028
:1029F00009951092A1010ACF10923A0234CF8F9319
:102A00008FB78F9384B5805884BD8F918FBF8F917E
:102A100018951895E6E6F2E01382128288EE93E0AC
:102A2000A0E0B0E084839583A683B7838CE191E036
:102A300091838083A3E7B2E013961C921E921297B3
:102A400020EF30E015963C932E93149780E491E0AC
:102A500017969C938E93169719963C932E931897DE
:102A60001B969C938E931A9756961C9256971D967A
:102A70001C921E921C971F961C921E921E9781E01C
:102A800055968C93559754968C9354972FEF3FEF10
:102A900053963C932E93529751963C932E93509776
:102AA00057968C93579758961C9258975A961C9203
:102AB0001E925997D5961C92D5978FEFD6968C93E8
:102AC000D6978AE0D7968C93D79789E0D8968C933F
:102AD000D897DA961C921E92D997DC961C921E9279
:102AE000DB97DD961C92DD97DE961C92DE971092A6
:102AF000B2021092B3021092B4021092B50282E7B1
:102B000092E090969C938E935F97ECE1F6E0E491CF
:102B1000F0E0EE0FFF1FE75FF94F859194915E960D
:102B20009C938E935D97EEEFF5E08491D3968C9312
:102B3000D397EDE1F6E0E491F0E0EE0FFF1FE75FE1
:102B4000F94F259134915C963C932E935B97EFEF70
:102B5000F5E0E491D196EC93D197E095D296EC9381
:102B6000D297E82FE095D496EC93D4978EE291E03B
:102B70008D939C93089584B5836084BD85B58860EA
:102B800085BD85B5826085BD84E387BD569A8091F9
:102B9000B10082608093B1008FEF8093B300809189
:102BA000700084608093700078941092AC01109251
:102BB000AB0110924302109265020E94930F8DEBBD
:102BC00090E190937C0180937B018EEB90E1909358
:102BD000800180937F01C1E0C093420282E580932F
:102BE000640280EF90E00E943D1185E590E00E9434
:102BF0003D110E94D20FC0934202109243021092E4
:102C000065028BEF90E00E943D1190E080E00E9411
:102C10003D110E94D20F64E08AEF0E947D11843042
:102C200009F0A0C080E38093EB0188E78093EC017A
:102C300086EF91E0CDECD1E02AEF31E0DC01ED91BF
:102C4000CD01AE2FB0E074E0B595A7957A95E1F788
:102C5000A85FBE4F4C9148A3EF70F0E0E85FFE4FD5
:102C6000408149A322962817390741F71092F501B0
:102C7000C8E7D0E000EA10E0FF24F39466E080E0CB
:102C80000E947D11863009F04CC08091F60180933E
:102C9000CD018091F7018093CE018091FB01282F17
:102CA00030E04091F801B4E04B9FA0011124B9013C
:102CB000759567957595679563707727462B572BA4
:102CC0005093D0014093CF014091F90194E0499F86
:102CD000A001112464E0359527956A95E1F72370EA
:102CE0003327242B352B3093D2012093D10120910F
:102CF000FA01A4E02A9F90011124982F92959695AD
:102D000096959370292B3093D4012093D301982F5B
:102D1000909591709093D501869581708F258093C1
:102D2000D6018091CD018D3888F0CD32B1E0DB073E
:102D300008F421968091D3019091D4010B9760F40F
:102D40000D3D110548F40B5F1F4F98CF843690F767
:102D5000209781F32197EECF209709F48FCF015070
:102D600011098CCF8FEF9FEF08950E94BD1633237A
:102D700012F48A1B9B0B0C94CE16A29FB001B39F3A
:102D8000C001A39F700D811D1124911DB29F700D74
:102D9000811D1124911D08950E94BD16B7FF08954D
:102DA000821B930B0895EE0FFF1F0590F491E02D09
:062DB0000994F894FFCF26
:102DB600FFFFFFFFFFFFFFFF303132333435363779
:102DC6003839414243444546000000000E11E110E7
:102DD6004211C0083F03CE10BF10000000004E068F
:102DE600E80342116B0F5C0AF40DC20D590DD80CA5
:102DF600190DF008650EE20ED80E6A0BDB0B4C0CB3
:0A2E0600EC077F0720077D12700E15
:00000001FF
