:100000000C9458000C9480000C9480000C94800098
:100010000C9480000C9480000C9480000C94800060
:100020000C9480000C9480000C9480000C94800050
:100030000C9480000C9480000C9480000C94800040
:100040000C946E050C9480000C94DC050C94B605A1
:100050000C9480000C9480000C9480000C94800020
:100060000C9409060C948000000000002500280074
:100070002B00040404040404040402020202020229
:10008000030303030303010204081020408001025C
:1000900004081020010204081020000000080002DB
:1000A0000100000304070000000000000000280712
:1000B00011241FBECFEFD8E0DEBFCDBF11E0A0E01E
:1000C000B1E0ECE8F1E102C005900D92AE3AB10763
:1000D000D9F723E0AEEAB1E001C01D92A336B20722
:1000E000E1F710E0C8E5D0E004C02197FE010E94CE
:1000F000BE08C735D107C9F70E9461070C94C40830
:100100000C9400008091FF0190910002891B990BD3
:10011000089590E0FC01E656FF4F2491FC01EA5758
:10012000FF4F3491FC01EE58FF4FE491EE23C9F0EC
:10013000222339F0233001F1A8F4213019F12230C3
:1001400029F1F0E0EE0FFF1FE859FF4FA591B491A0
:100150008FB7F894EC91611126C030953E233C9303
:100160008FBF08952730A9F02830C9F0243049F70F
:10017000809180008F7D03C0809180008F77809375
:100180008000DFCF84B58F7784BDDBCF84B58F7DD2
:10019000FBCF8091B0008F778093B000D2CF809159
:1001A000B0008F7DF9CF3E2BDACF3FB7F894809126
:1001B000FB019091FC01A091FD01B091FE0126B5DB
:1001C000A89B05C02F3F19F00196A11DB11D3FBF8F
:1001D000BA2FA92F982F8827BC01CD01620F711D5E
:1001E000811D911D42E0660F771F881F991F4A9558
:1001F000D1F70895CF92DF92EF92FF920F931F9362
:10020000CF93DF937C016A0110E000E00C151D051F
:1002100081F0EB01D701ED91FC910190F081E02D8F
:100220006991C7010995892B21F00F5F1F4FBE010E
:10023000EDCFC801DF91CF911F910F91FF90EF900B
:10024000DF90CF900895FC01538D448D252F30E031
:10025000842F90E0821B930B541710F0CF960895D3
:1002600001970895FC01918D828D981761F0A28D00
:10027000AE0FBF2FB11D5D968C91928D9F5F9F73C6
:10028000928F90E008958FEF9FEF0895FC01918D7C
:10029000828D981731F0828DE80FF11D858D90E0E9
:1002A00008958FEF9FEF0895FC01918D228D892F86
:1002B00090E0805C9F4F821B91098F73992708956E
:1002C000FC01A48DA80FB92FB11DA35ABF4F2C91CB
:1002D000848D90E001968F739927848FA689B789C2
:1002E0002C93A089B1898C91837080648C93938DB9
:1002F000848D981306C00288F389E02D80818F7D5C
:1003000080830895EF92FF920F931F93CF93DF9313
:10031000EC01F62E81E0888F9B8D8C8D98131AC08E
:10032000E889F989808185FF15C09FB7F894EE8927
:10033000FF896083E889F989808183708064808384
:100340009FBF81E090E0DF91CF911F910F91FF90CF
:10035000EF9008950B8D10E00F5F1F4F0F73112763
:10036000E02E8C8D8E110CC00FB607FCFACFE889F9
:10037000F989808185FFF5CFCE010E946001F1CF20
:10038000EB8DEC0FFD2FF11DE35AFF4FF0829FB76D
:10039000F8940B8FEA89FB8980818062D0CFCF935C
:1003A000DF93EC01888D8823B9F0AA89BB89E8899D
:1003B000F9898C9185FD03C0808186FD0DC00FB643
:1003C00007FCF7CF8C9185FFF2CF808185FFEDCFC1
:1003D000CE010E946001E9CFDF91CF910895209175
:1003E000D101260F3327331F21323105ECF4209140
:1003F0009002FC0190E080E0243069F082E00895F2
:10040000A091D1012191AC0141555E4FA40FB52FB0
:10041000B11D2C930196861798F38091D101680F36
:100420006093D10180E0089581E0089510929002D8
:1004300081E080938F0210926A0261E082E10E9463
:10044000890061E083E10E948900E9EBF0E08081AE
:100450008E7F808380818D7F808388E48093B80045
:1004600085E48093BC000895CF93DF9391E090934F
:10047000AE018823B9F0C091B800D091BA00809144
:10048000BC008A7B8093BC0060E082E10E9489000E
:1004900060E083E10E9489000E941602D093BA00B6
:1004A000C093B800DF91CF9108958F929F92AF9241
:1004B000BF92CF92DF92EF92FF920F931F93CF9351
:1004C000DF931091B902C1E0113208F09EC0D091C3
:1004D000B8020E94D5006B017C01C0919002C1114D
:1004E0006EC082E08093900281E080938F028FEF54
:1004F00080938E0210928D0210938C0228E932E0D4
:10050000ACE6B2E0F9018E2F821B811708F491C08E
:1005100010926B0280916B02DD0FD82BD0936B028F
:1005200080916A02813009F087C010926A020E94AD
:10053000D5006B017C0180916B028093BB008091A0
:10054000920290919302A0919402B0919502892B0E
:100550008A2B8B2BA1F00E94D50000919202109162
:10056000930220919402309195026C197D098E09B5
:100570009F09061717072807390708F441C080911B
:10058000BC0083FDD8CF85EC8093BC000E94D500D1
:100590006B017C0180919002823009F44FC0809100
:1005A0008E028F3F91F180918E02C2E0803269F11C
:1005B00080918E02C4E0803341F5C3E026C0809173
:1005C000920290919302A0919402B0919502892B8E
:1005D0008A2B8B2B09F481CF0E94D5008090920248
:1005E00090909302A0909402B09095026C197D09AE
:1005F0008E099F0986169706A806B90608F06DCFE2
:10060000809191020E943402C5E0109297021092EC
:10061000B902109296028C2FDF91CF911F910F910A
:10062000FF90EF90DF90CF90BF90AF909F908F9012
:10063000089581918D9367CF85EEA6CF8091920228
:1006400090919302A0919402B0919502892B8A2BEC
:100650008B2B09F49FCF0E94D5000091920210913C
:10066000930220919402309195026C197D098E09B4
:100670009F09061717072807390708F08BCFC0CF47
:10068000089508950895E09100028091FF01E81710
:1006900030F4F0E0EF5FFD4F808190E008958FEF40
:1006A0009FEF0895909100028091FF012FEF3FEF9F
:1006B000981748F4E92FF0E0EF5FFD4F208130E01C
:1006C0009F5F90930002C9010895CF92DF92EF924D
:1006D000FF920F931F93CF93DF937C01CB018A018D
:1006E00020919602222389F0EB016B01C40ED51EE6
:1006F000CC15DD0569F06991D701ED91FC91019070
:10070000F081E02DC7010995F3CF642F0E94EF011E
:10071000C801DF91CF911F910F91FF90EF90DF9073
:10072000CF900895CF93DF930F92CDB7DEB7698353
:10073000209196022223F9F02091B902203258F03C
:1007400021E030E0FC013383228390E080E00F90D1
:10075000DF91CF91089580919702E82FF0E0E8565D
:10076000FD4F998190838F5F809397028093B902A8
:1007700081E090E0ECCF61E0CE0101960E94EF01B4
:10078000F7CF682F87E593E00C94920390E080E028
:100790000895009769F0FC0101900020E9F7319776
:1007A000AF01481B590BBC018AEB92E00C94FA0094
:1007B00090E080E008958F929F92AF92BF92CF9287
:1007C000DF92EF92FF920F931F93CF93DF93CDB7FA
:1007D000DEB7A1970FB6F894DEBF0FBECDBF6B0199
:1007E0007C0119A2423008F44AE08E010F5D1F4FD0
:1007F000842E912CB12CA12CC701B601A501940126
:100800000E949C086A3014F5605DF80162938F01C4
:10081000C814D904EA04FB04B0F4CF010E94C90350
:10082000A1960FB6F894DEBF0FBECDBFDF91CF917A
:100830001F910F91FF90EF90DF90CF90BF90AF90FE
:100840009F908F90089569017A01D6CF695CDDCFC2
:10085000CF93DF930E94C903EC0184E391E00E94EF
:10086000C9038C0F9D1FDF91CF91089585ED809373
:10087000BC008091920290919302A0919402B09159
:1008800095020796A11DB11D23E0B695A7959795F2
:1008900087952A95D1F72091BC0024FD03C01092C2
:1008A00090020895409192025091930260919402B7
:1008B00070919502452B462B472B69F30097A105B4
:1008C000B10541F02AE22A95F1F700C00197A1098C
:1008D000B109E1CF809191020C943402CF92DF9262
:1008E000EF92FF920F931F93CF93DF93D62F91E058
:1008F0009093960292E59093B8021092970210920C
:10090000B902682F87E593E00E9492030E94550286
:100910008FE99FE00197F1F700C000000E94D50029
:100920006B017C01C0919002C11149C081E08093AC
:10093000900280938F029FEF90938E0210928D020F
:100940009D0F90938C0280936B0280916B02846A5E
:1009500080936B0280916A02813009F093C01092FB
:100960006A020E94D5006B017C0180916B0280932A
:10097000BB008091920290919302A0919402B09159
:100980009502892B8A2B8B2B09F45AC00E94D50023
:10099000009192021091930220919402309195025D
:1009A0006C197D098E099F09061717072807390753
:1009B00008F046C0809191020E94340226C08091C6
:1009C000920290919302A0919402B0919502892B8A
:1009D0008A2B8B2B09F4A6CF0E94D500009192029E
:1009E0001091930220919402309195026C197D0927
:1009F0008E099F09061717072807390708F092CFB5
:100A0000809191020E943402C0E010920002C093D3
:100A1000FF018AE4E82E82E0F82EDF5F10E080918B
:100A20000002C81709F450C01D1709F44DC087E52E
:100A300093E00E9452031F5FF70181937F01EFCF84
:100A40008091BC0083FD91CF85EC8093BC000E9417
:100A5000D5006B017C01809190028130A9F08091DA
:100A60008D02CD2F8D1710F4C0918D022CE632E04F
:100A7000A1E0B2E0F9018E2F821B8C1730F6819134
:100A80008D93F9CF85EEE1CF809192029091930200
:100A9000A0919402B0919502892B8A2B8B2BD9F2CD
:100AA0000E94D5000091920210919302209194022D
:100AB000309195026C197D098E099F090617170759
:100AC0002807390740F676CF812FDF91CF911F910C
:100AD0000F91FF90EF90DF90CF9008951F921FB677
:100AE0001F9211242F933F938F939F93AF93BF93A4
:100AF0008091F7019091F801A091F901B091FA016C
:100B00003091F60123E0230F2D3750F50196A11DFA
:100B1000B11D2093F6018093F7019093F801A09303
:100B2000F901B093FA018091FB019091FC01A09131
:100B3000FD01B091FE010196A11DB11D8093FB0145
:100B40009093FC01A093FD01B093FE01BF91AF9182
:100B50009F918F913F912F911F901FBE1F901895CD
:100B600026E8230F0296A11DB11DD3CF1F920F922D
:100B70000FB60F9211242F933F934F935F936F9370
:100B80007F938F939F93AF93BF93EF93FF938AEBE2
:100B900092E00E946001FF91EF91BF91AF919F9110
:100BA0008F917F916F915F914F913F912F910F9016
:100BB0000FBE0F901F9018952F932FB72F938F93E1
:100BC0009F93EF93FF93E091CA02F091CB02808153
:100BD000E091D002F091D10282FD19C09081809104
:100BE000D3028F5F8F732091D402821741F0E0917E
:100BF000D302F0E0E654FD4F958F8093D302FF912E
:100C0000EF919F918F912F912FBF2F9118958081F8
:100C1000F6CF1F920F920FB60F9211242F933F938E
:100C20004F935F936F937F938F939F93AF93BF93F4
:100C3000EF93FF938091B900887F803609F44AC012
:100C4000F0F5883209F4A7C018F5803109F49BC08B
:100C5000B8F4882309F4F9C0883009F494C0FF91EE
:100C6000EF91BF91AF919F918F917F916F915F9124
:100C70004F913F912F910F900FBE0F901F9018959D
:100C8000883109F488C0803251F780938E0214C0F5
:100C9000803409F49DC040F48033B9F38833F9F609
:100CA00080938E0285ECB0C0803509F485C088350C
:100CB00009F496C0883499F60E943604D0CF88395A
:100CC00009F48CC038F5883729F050F4883611F0D3
:100CD000803729F683E0809390021092F50157C087
:100CE000883809F47BC0803919F0803809F0B7CF13
:100CF0008091F501803208F071C0E091F50181E04A
:100D00008E0F8093F5018091BB00F0E0EB52FE4F17
:100D100080833DC0803B39F0E0F4803A09F479C02B
:100D2000883A09F09CCF84E0809390021092D2011F
:100D30001092D101E091CF01F091D00109958091FD
:100D4000D10181110FC081E08093D1011092AF01D8
:100D500009C0803C09F4A6CF883C09F4A3CF883BA6
:100D600009F07DCFE091D20181E08E0F8093D20116
:100D7000F0E0E155FE4F80818093BB009091D2015D
:100D80008091D10129C080916B028093BB0085ECDA
:100D90008093BC0064CF90918D0280918C02981753
:100DA00058F5E0918D0281E08E0F80938D02F0E086
:100DB000E459FD4F8081E9CFE0918D0281E08E0FF3
:100DC00080938D028091BB00F0E0E459FD4F808359
:100DD00090918D0280918C029817C8F285E8D8CF47
:100DE000E0918D0281E08E0F80938D028091BB0097
:100DF000F0E0E459FD4F808380918F0281115CCF38
:100E000081E080936A0284EA8093BC001092900291
:100E100026CF85EC8093BC00109290028091F50162
:100E2000803230F4E091F501F0E0EB52FE4F108299
:100E30006091F50170E0E091D301F091D40185ED6E
:100E400091E009951092F5010ACF10928E0234CFED
:100E5000EAEBF2E01382128288EE93E0A0E0B0E0C9
:100E600084839583A683B78324E131E03183208393
:100E700025EC30E03587248724EC30E0378726875F
:100E800020EC30E0318B208B21EC30E0338B228B57
:100E900022EC30E0358B248B26EC30E0378B268B30
:100EA000118E128E138E148EE7E5F3E013821282F8
:100EB00084839583A683B78386E291E091838083C0
:100EC00008957894E091CA02F091CB0282E0808389
:100ED000E091C602F091C7021082E091C802F09141
:100EE000C9028FEC80831092D202E091CE02F09181
:100EF000CF0286E08083E091CC02F091CD02808128
:100F000080618083E091CC02F091CD028081886085
:100F10008083E091CC02F091CD0280818068808353
:100F2000E091CC02F091CD0280818F7D8083109280
:100F300000021092FF01109297021092B9020E94D3
:100F4000160280E493E09093D0018093CF0181E476
:100F500093E09093D4018093D3018AEB92E00E94B6
:100F6000CF0187E391E00E94C90340E162E570E0B0
:100F700080E090E00E94DB0384E391E00E94C903DB
:100F8000C1E0C093960282E58093B8021092970266
:100F90001092B90280EF90E00E94C10385E590E0D5
:100FA0000E94C1030E945502C093960210929702BC
:100FB0001092B9028BEF90E00E94C10390E080E0B4
:100FC0000E94C1030E94550264E08AEF0E946E04F1
:100FD000843009F0A6C080E380933F0288E78093C5
:100FE00040028AE492E0C1E2D2E02EE432E0DC0189
:100FF000ED91CD01AE2FB0E074E0B595A7957A954F
:10100000E1F7A050BF4F4C9148A3EF70F0E0E050E3
:10101000FF4F408149A322962817390741F71092C4
:1010200049028EE791E00E94C9038FE392E00E949B
:101030002804C1E066E080E00E946E04863009F07A
:1010400070C080914A028093210280914B0280936C
:10105000220280914F02282F30E040914C02B4E0F0
:101060004B9FA0011124B9017595679575956795FA
:1010700063707727462B572B50932402409323020B
:1010800040914D0294E0499FA001112464E0359500
:1010900027956A95E1F723703327242B352B30935E
:1010A00026022093250220914E02A4E02A9F90015F
:1010B0001124982F9295969596959370292B30939D
:1010C000280220932702982F9095917090932902DF
:1010D000869581708C2780932A0289E991E00E948D
:1010E000C9036091210270E090E080E040E10E943D
:1010F000DB0381EA91E00E94C903609127027091AD
:10110000280290E080E040E10E94DB0384E391E06C
:101110000E94C9038FE39CE90197F1F700C000002A
:1011200089CF84E691E00E9428048AEB92E00E9435
:10113000CF0181E090E00895A1E21A2EAA1BBB1B0B
:10114000FD010DC0AA1FBB1FEE1FFF1FA217B30793
:10115000E407F50720F0A21BB30BE40BF50B661FA9
:10116000771F881F991F1A9469F76095709580956D
:1011700090959B01AC01BD01CF010895EE0FFF1FBB
:0C1180000590F491E02D0994F894FFCF45
:10118C0030313233343536373839414243444546B1
:10119C00000000008201FA002301CF01540132014A
:1011AC0046010000000092036503C603420382005F
:1011BC00520343030D0A002D2D2D2D2D2D2D2D20E9
:1011CC00436F6E6E656374696E6720746F206E7505
:1011DC006E6368756B2061742061646472657373EF
:1011EC00203078002A2A2A2A2A2A2A2A204E6F20DE
:1011FC006E756E6368756B20666F756E64002D2D51
:10120C002D2D2D2D2D2D204E756E6368756B207731
:10121C006974682049643A20004A6F7920583A2052
:0E122C0000090909416363656C205A3A2000ED
:00000001FF
